:1000000000200020C51000003D0F0000C1100000BE
:10001000C1100000C1100000C1100000C11000009C
:10002000000000000000000000000000C1100000FF
:10003000C110000000000000C1100000C11000004D
:10004000710B0000490C00005D0D0000490C000020
:040050005D0D000042
:100054000348044B834202D0034B03B11847704753
:10006400E8E00100E8E0010000000000064B074959
:10007400C91A891048BF0131491003D0044B0BB190
:1000840001481847704700BFE8E00100E8E00100BC
:100094000000000010B5064C237843B9FFF7D8FFE1
:1000A400044B13B10448AFF300800123237010BD47
:1000B4001C200020000000005400000008B5054B7F
:1000C4001BB105490548AFF30080BDE80840FFF7C0
:1000D400CDBF00BF0000000020200020540000001D
:1000E4002DE9F04F4B4D00212B46FBB005F5007276
:1000F40003F8011B9342FBD10126474B18AC2B603C
:100104006E6000F0A3FA454B31461A6803460DF1C0
:100114005F082046EB60EA6100F0BCF842460DF14E
:10012400FF0B341BA31812F8011F2B445A4583F804
:100134006011F7D101220192AA61BFF35F8F7AABFC
:10014400C3F1E90602ABAA600DF2E717A2EB0309BB
:10015400D5F810A0BAF1000FFAD06B695345F7D067
:100164000223AB60BFF35F8F5C465B46F2182A4400
:1001740092F8202003F8012FBB42F7D1BFF35F8F21
:100184002B69534532D002A9042240A800F0F0F8AC
:100194000421BFF35F8F2A69A2EB0A02B2FA82F24A
:1001A400520933192B4414F8010F93F82030984264
:1001B40018BF0022BC42F4D122B30DF1070309EBAE
:1001C400030213F8010F2A44984582F80801F6D176
:1001D400019BAB61BFF35F8F002914BF042303238A
:1001E400AB60BFF35F8FC5F814A0B1E742A800F07D
:1001F4004FF85045C7D102A901AA40A800F0D6F88B
:100204000146C6E702A9042240A800F0B1F804217F
:10021400D3E700BF00F0012056353541902000207F
:1002240038B50C46054654220021201D01F001F882
:100234000123154A23712260D5F808C0E8682A69A9
:100244006B691249C4F808C001F1400EE0602261F4
:10025400636104F11F0C0B784878A3F13002D2B229
:10026400092A84BF573BDAB2A0F13003DBB2092B71
:1002740084BF5738C3B2023143EA02138E450CF8E7
:10028400013FE8D138BD00BF56355253E8DF0100C5
:100294000068704770B59C2204460D460430002166
:1002A40000F0C7FF01232E4AA56022602371237347
:1002B40000F0CCF90022811A4FF0290C4FF005050B
:1002C40018BF0121274B6274A274E2746275A2758F
:1002D400E2756276A276E27603F1400684F814C0F1
:1002E400257604F11C022174D3F800C05D68986877
:1002F400D9681033B342C2F800C055609060D16031
:1003040002F11002F0D1184D04F15C0E05F1400623
:10031400AC460EF1100EBCE80F00B44505F1100513
:100324004EF8100C4EF80C1C4EF8082C4EF8043CF9
:10033400EED1A4464FF0FF320C4804F19C0508218D
:100344001CF8013B5A4042F300030340013983EA9D
:100354005202F8D1AC45F2D1D243C4F89C2070BD0E
:1003640056354849E8DF0100481200002083B8ED03
:1003740038B50C461546FFF753FF4FF0FF30A4463F
:100384000949A56104F1540E08221CF8013B5840A8
:1003940040F300030B40013A83EA5000F8D1F445DE
:1003A400F2D1C043606538BD2083B8ED2DE9F0413A
:1003B400B0B080B10E4671B1174662B102684D4BC0
:1003C40005469A4202D14368012B09D001223146E5
:1003D4002846FFF7CDFF0124204630B0BDE8F08168
:1003E4008369292BF2D1C369A42BEFD14FF0FF3CD1
:1003F4000146414A50F8E4EF082411F8013B8CEA25
:10040400030C4CF300031340013C83EA5C0CF8D169
:100414008842F1D16FEA0C0CE645D7D13146284623
:10042400FFF7FEFE2022B118A81800F0F2FE002803
:1004340051D1AB68E9685A1EB2F5806F44D238686E
:10044400984241D18A423FD14FF00508A42205F1D8
:10045400400107A800F0D0FE02AB2922274807A9D3
:10046400CDF8008000F0A8F93B6801333B60C8BBBD
:10047400B46102ADC6F81C8006F13F0406F15307CF
:100484002246002355F8040B20FA03F10833202BED
:1004940002F8011FF8D10434A742F1D130464FF0DD
:1004A400FF32154906F15405082410F8013B5A405F
:1004B40042F300030B40013C83EA5202F8D1854227
:1004C400F2D1D243726587E7032231462846FFF70B
:1004D4004FFF032480E7022231462846FFF748FFF6
:1004E400022479E700F58074224631462846FFF756
:1004F4003FFF71E7563552512083B8ED8C1200004E
:10050400C0EE207AC0F17F0307EE103A82B0CDED41
:10051400017AB8EEC77ADDED017AF4EEC77AF1EE2E
:1005240010FA2EDA6FF07F031A1A07EE102AB8EECB
:10053400C77AF4EEC77AF1EE10FA1ED9BBFE677AD9
:1005440077EEC77ACDED007AF6EE006ADDED007A3B
:10055400F4EEE67ABDEEC77AF1EE10FA17EE103A31
:1005640006DCF4EE667AF1EE10FA02D1DA0700D571
:100574000133184400F3070043B200200B7002B0AB
:1005840070477F2300200B7002B070472DE9F041C3
:1005940086B06C4684E80C00DDED000A00294ED0DC
:1005A400F0EEE07A9FED286AF4EE467AF1EE10FA66
:1005B40090ED000A3FD8F5EEC00AF1EE10FA3ADDEC
:1005C4001D468033FF2B36D80F4604464FF00008F3
:1005D400061D03E0474532D0B6EC010AF0EEC07ABE
:1005E400F4EE467AF1EE10FA21D828460DF10F0107
:1005F400FFF786FF08F10108F0B99DF90F305B1B86
:1006040007EE903AF8EEE77ACDED047ADDED047A60
:1006140060EEA77ACDED057ADDED057AB0EEE77AE6
:10062400B4EE467AF1EE10FAE4EC017AD2D9032062
:1006340006B0BDE8F081012006B0BDE8F0810020DD
:1006440006B0BDE8F08100BFFFFF7F7F4FF40002DA
:100654004FF07C5300B585B001920293DDED017A31
:100664009DED027A67EE877ACDED037A00F0BEFD48
:1006740058B9DDED037AF5EEC07AF1EE10FACCBF8D
:100684000120002005B05DF804FB002005B05DF8F2
:1006940004FB00BF00287BD0002979D0D0ED097A73
:1006A4009FED447AF0EEE76AF4EE476AF1EE10FA51
:1006B4006ED8F5EEC07AF1EE10FA69D9D0ED0A6A77
:1006C400F5EE406AF1EE10FA62D1D0ED0B5AB7EEB6
:1006D400006AF4EE465AF1EE10FA59D1D0ED0C5AF4
:1006E400B1EE006AF4EE465AF1EE10FA50D190EDF4
:1006F4000D5AF6EE005AB4EE655AF1EE10FA47D1EF
:10070400D0ED0E5AF4EE465AF1EE10FA40D1B0EEA6
:10071400C06AB4EE476AF1EE10FA49D880EE277A3F
:1007240086B08DED017A9DED017AF4EEC76AF1EEA3
:1007340010FA2FDDF1EE005A66EEA55ACDED055AFA
:100744009DED057AB6EE005A37EE057A8DED047A02
:100754009DED047AB5EE006ABBFE477A27EE067A71
:100764008DED037A9DED037A67EE877ACDED027AFB
:10077400DDED027ADFED0F6AB0EEE77AB4EE667A69
:10078400F1EE10FA12D8C1ED007A002006B07047DD
:1007940001207047F7EE006AB4EEE67AF1EE10FA43
:1007A400DCBFF1EE005A67EE255AC7E70320EDE7F8
:1007B40003207047FFFF7F7F2DE9F04F2DED028B63
:1007C400ADF6340D80B1009171B11C4663B1531E76
:1007D400FF2B154608D8DDF86038013BFF2B03D802
:1007E40083688346934207D0012738460DF6340DBB
:1007F400BDEC028BBDE8F08FD0F8D830DDF860286E
:100804009342F1D1D0ED007A9FEDB97AF0EEE76A28
:10081400F4EE476AF1EE10FA4368E5D8F5EEC07AD3
:10082400F1EE10FAE0DD8033FF2BDDD84FF4000346
:1008340009934FF07C530A93DDED097A9DED0A7A12
:1008440067EE877ACDED0B7A00F0D0FC02460028E3
:100854007AD1DDED0B7AF5EEC07AF1EE10FA73DDA4
:10086400DFEDA36A5B462E4600999868B042BBD17F
:10087400DE68701EFF28B7D818690028B4D05869FC
:100884000028B1D09F69002FAED0D8690028ABD022
:10089400186A0028A8D0D3ED097AB0EEE77AB4EE4E
:1008A400667AF1EE10FAD3F828C09DD8F5EEC07A36
:1008B400F1EE10FA98DD0CF1800CBCF1FF0F93D827
:1008C400032A18D0D3ED117A9FED897AB0EEE76A46
:1008D400B4EE476AF1EE10FAD3F848C084D8F5EEC6
:1008E400C07AF1EE10FA7FF77FAF0CF1800CBCF107
:1008F400FF0F3FF679AFDFED7E7A4FF0000C17E083
:10090400B5EEC07AF1EE10FA7FF66EAFB0EC017A74
:10091400B0EEC76AB4EE676AF1EE10FA3FF664AF60
:10092400B5EEC07AF1EE10FA7FF65EAF66450DD9EA
:10093400B7EC017AB0EEC76AB4EE676AF1EE10FA6A
:100944000CF1010CDCD94FE702274EE70132042AEF
:1009540003F1440389D1AA000CA800F04DFC9BE8E4
:100964000C0029460CA8FFF711FE074600287FF467
:100974003CAF9FED608ADFED5E8AA2460BF108056D
:100984000BF58C790BF1D40B6E68002E69D0002125
:100994000F466B69D5F800E0A3F1040CAC690DF5C2
:1009A40086630093CDF80490B0EE487ABA00BEF1A5
:1009B400000F2DD02B690DF13008134493ED006A1C
:1009C400D5E9022302EB0E09D8570A44894412F9E7
:1009D400013BF8EC016A1B1A07EE903AF8EEE77A4D
:1009E400CDED047ADDED047A66EE277ACDED057A55
:1009F400DDED057A66EEA77ACDED037ADDED037AB7
:100A040037EE877A91458DED027A9DED027ADED13B
:100A1400DCED016AF8EEE66ACDED076ADDED076A02
:100A2400F4EC017A67EEA67ACDED087ADDED087A6A
:100A340077EE877ACDED067ADDED067AB0EEE77AC9
:100A4400B4EE687A009BF1EE10FAE3EC017A0CF153
:100A5400040C00933FD80137B7427144A4D1DDF8A8
:100A640004903146D5E907230DF58660FFF78EFD26
:100A7400074600287FF4B9AE5D4530D080460DF5B9
:100A8400866209E011462846B2EC010AFFF702FE2D
:100A940008F10108034600BBB045F3D1D5E90F23A3
:100AA40041460DF58660FFF771FD0346A8B94FEA8C
:100AB40088020DF586610CA8443500F09DFB4D4578
:100AC4007FF462AF5446DDF8603820460CA99A00E2
:100AD40000F092FB89E6032787E61F4685E60DF5BD
:100AE4008661B2000CA8544600F086FBEBE700BF19
:100AF400FFFF7F7F0000000008B5FFF7F1FA002038
:100B040008BD00BFF0B5076A06468BB067B3BE46A2
:100B14006C468C46BEE80F003D460FC4BEE80F008D
:100B24000FC49EE8030084E80300BCE80F000FC56F
:100B3400BCE80F000FC59CE803008EE80300F369CE
:100B440038469847336A6BB19C46EE46BEE80F00C0
:100B5400ACE80F00BEE80F00ACE80F009EE803000D
:100B64008CE803000BB0F0BD0F46E8E730B58BB05E
:100B7400EFF30383103B304A5BB2C03352F82310C7
:100B840021F4803142F8231052F82330EFF3038329
:100B94002A48103B5BB250F82350282200216846B3
:100BA40000F047FB00206C6894F84D3884F84D0839
:100BB400DBB2ADF80430B4F84218C1F30012C90630
:100BC40038D543F02003ADF80430022394F85328B9
:100BD40084F8533894F85238D2B203F01F0384F8DF
:100BE4005328E11891F8202860F3820281F8202824
:100BF4002A686946126803936B6A28460493009234
:100C0400FFF780FFB4F84238DB0611D52B681A6968
:100C1400127D6AB193F91530002B09DB01215A09C1
:100C2400074803F01F03403201FA03F340F822306F
:100C34000BB030BD1346DBE700600040702000209D
:100C440000E100E02DE9F0418AB0EFF30383103BAB
:100C54003E4A5BB2C03352F8231021F4803142F88B
:100C6400231052F82330EFF303854FF48062002100
:100C7400374B103D6FB253F8270005F0FF05D0E95C
:100C84000084ADF8042094F8533884F8531894F889
:100C94005268DBB206F01F0606F1200284F85338CE
:100CA4001301E15854F803C0C1F380738DF819306F
:100CB400D8F810301B7B43EADC7303F001038DF892
:100CC4001830002B3ED1C1F38A41059104EB021286
:100CD400938803F00F03082B9C4628BF4FF0080CA1
:100CE4008DF81AC06BB100230DF11F0204EB061E30
:100CF4000EEB030191F8061201339C4502F8011F23
:100D0400F6D1D8F80030039600934423264486F89D
:100D140020380023426A694607930492FFF7F2FEE3
:100D2400B4F84238DB070AD5002F08DB01226B092F
:100D3400084905F01F054033AA4041F823200AB0B2
:100D4400BDE8F08121F06041BFE700BF00600040D2
:100D54007020002000E100E070B58AB0EFF3038357
:100D6400103B234A5BB2C03352F8231021F4803184
:100D740042F8231052F82330EFF3038301260021B5
:100D84004FF4006C1B4A103B5BB252F82350D5E978
:100D94000034186894F8532884F8536894F8523847
:100DA400D2B203F01F030393234484F8532883F837
:100DB400201883F820186B6A00906946284604932B
:100DC400ADF804C0FFF79EFEB4F842389B070DD57A
:100DD4002B6893F91730002B08DB5A09064903F0F6
:100DE4001F039E4002F1400341F823600AB070BD26
:100DF400006000407020002000E100E0064B07493D
:100E040093F826001A6A51F82030C2F302620449AA
:100E1400D3400B60704700BF00E001400020002079
:100E2400902000204AF2035001232E492E4A2DE936
:100E3400F043A1F8FE03A2F80431B2F804319BB2E6
:100E4400002BFAD101214FF40045092427480361FE
:100E54008560A2F80011264D264AC0E90052214AB5
:100E640092F82650156A82F8133482F8A24082F868
:100E7400801482F836302049204BC160436192F8D7
:100E84003C30D907FBD542F211740023154914856F
:100E940082F82A3091F83C309B06FBD505224FF0AE
:100EA4000109F12500244FF0F00E4FF4254CDFF832
:100EB4003880134F88F81C910F6281F8262091F82E
:100EC4002620104B50F82220086A0F4EC0F302600F
:100ED400C24032601D731C7283F80CE0A1F8FEC39B
:100EE400BDE8F08300E0014000C001400020002084
:100EF400002D310100127A0000366E0100C2EB0BA6
:100F040021120221002000409020002010B500246E
:100F1400064B012083F8284000F0A6F8044B01207A
:100F240083F8BB44BDE8104000F06EB800300840C0
:100F340000E00140704700BF70B500240B4B0C4E1D
:100F4400B3F82021B3F84051ADB2154025FA04F3AB
:100F5400DB0704D556F82430E0B203B198470134D6
:100F64000E2CF3D1014BA3F8305170BD006000404A
:100F74003820002030B5032085B000F075F8002536
:100F84006FF0FF004FF0FF321B4B1C4C986421465E
:100F94002B464FF0010ECDE90122039231F8020BEA
:100FA4000EFA03FC013310B1012522EA0C02052BD1
:100FB400F4D1F5B10192124B0F4903200A67C3F82B
:100FC4008022029A4A67C3F88422039A8A67C3F884
:100FD400882200F019F800230A4834F8022B03F1A0
:100FE400C00101330AB140F82120052BF5D105B029
:100FF40030BD4FF0FF32DEE7008000402CE00100FE
:1010040000E100E000600040EFF31081012383F36E
:101014001088124B33F8102092B22AB133F8102002
:10102400013A92B223F8102033F810309BB293B9EE
:101034000B4A10B4B2F8FE330A4C9BB234F81000D9
:1010440043F4254323EA0003A2F8FE3381F3108816
:101054005DF8044B704781F31088704784200020AA
:1010640000E0014038E0010030B4EFF310810123C7
:1010740083F310880E4A32F810309BB26BB90D4CD2
:101084000D4DB4F8FE3335F810C09BB243EA0C039F
:1010940043F425439BB2A4F8FE3332F810300133F5
:1010A4009BB222F8103081F3108830BC704700BF27
:1010B4008420002000E0014038E0010000BE7047B9
:1010C40008B500F037F8FFF717FDFEE7F8B5174F3E
:1010D40005463E68A6B17C6806EB460604EB860628
:1010E40002E00C34B4420BD0637AAB42F9D1D4E9B8
:1010F40000020021121A0C3400F09BF8B442F3D120
:10110400BE6896B1FC6804EB061602E01034A642F1
:101114000BD0637BAB42F9D1D4E90002A168121A67
:10112400103400F069F8A642F3D1F8BD44E00100A0
:10113400704700BF4FF47001254B264A70B500205C
:10114400C3F888109A60FFF7F3FFFFF76BFE0120E6
:10115400FFF7EEFF204B83F30A880020FFF7B6FF6A
:10116400FFF74CFEFFF7D2FE0320FFF77DFF4FF69B
:10117400FF720024194B03201A825A829A82DA825F
:101184001A835A83FFF740FF0320FFF76DFF144BC8
:1011940003205C609C60DC601C61FFF735FF01206C
:1011A400FFF794FF0F4D104B5B1BA34206DD9E100F
:1011B40055F8043B01349847A642F9DC0220FFF7B6
:1011C400B7FFFFF7D7FEBDE870400020FFF7B2BEBF
:1011D40000ED00E00000000000000020000D0840C9
:1011E40000000E40E8E00100ECE00100F1EE100A1E
:1011F40000F44000704700BF0A44431E914200D1EE
:10120400704710B511F8014B914203F8014FF9D121
:1012140010BD0139024410B5904201D1002005E00F
:10122400037811F8014FA34201D0181B10BD0130FF
:10123400F2E702440346934200D1704703F8011BCE
:10124400F9E7000063623562333431356364626602
:10125400623861323764623437316639373266371F
:1012640033393130663761353530333638376437A2
:10127400393434363435386238613438633461652E
:1012840031656462000000008807903E89FFFFFF1B
:101294002900000000010000E8B60100E8B50100E3
:1012A400E8B10100E8AD0100E8A90100176B283E90
:1012B40012000000A439AE3E000000000000803F90
:1012C400000080400000003F000080408DE8AE3AFE
:1012D40080FFFFFF0001000000010000E8A90000FA
:1012E400E8A80000E8A40000E8A00000E89C0000D2
:1012F4002F5EFC3CFDFFFFFFBEC60A3F000000005E
:101304000000803F000080400000003F000080405B
:1013140010520B3B80FFFFFF000100008000000023
:10132400E81C0000681C0000681A0000681800002F
:10133400681600001E6E093DF1FFFFFFAE30B13F9D
:10134400000000000000803F000080400000003FDB
:101354000000804091E2B13B80FFFFFF800000006D
:1013640005000000E8130000E0130000CC130000A7
:10137400B8130000A4130000FF35CB3DFFFFFFFFAF
:101384000000000000000000000000000000000059
:101394000000000000000000000000000000000049
:1013A4000DF1B73765C5B13707DAAA3759CC983785
:1013B400E3566237E8140000BEE5FFFF8BFFFFFF32
:1013C400C3FDFFFFDC200000AD5B843B05D67F3B03
:1013D400CAE0753B94E55B3BBADD223B00000000AC
:1013E40000000000E8EB2D4232ECB1D0B5E0E12D75
:1013F400F1B3E21C4289EA34372E44B4C911370BE5
:1014040009C4FBE64E10049FF8DDB8DFA3A5B7D0EE
:10141400D0318F2913C64B2FD51710ACC9E226D073
:101424004831CEE60F41ECA6EB2AE05952DC3EE00F
:101434004B2BD833AEDD041D262FCF9DFF123F3436
:10144400F454D73EEFC5894DE42C55C63FAD9055B5
:10145400D2E935F01A11FE4F96312EB62A333929C6
:1014640081C5BDBA3525D50905DA16E60CCFBAD43F
:10147400312E2E29C8BE0321BDD1B4B0F6D99CE0CB
:101484005421C932D7D8B60DB602353CD5EE18D2A0
:10149400B5E429D6C9BBC90ACEC01CC68B2A38B844
:1014A400C127D52597103D0B213C81E1EA23DC328D
:1014B400D6EF29DAC3F92D2C41D546ACC9242536FB
:1014C400BD4A31FFD7C99DB8348AD12DB120D6C3C6
:1014D40027F45E0FC5D3BAC8C0C13142CF9B1C0CE0
:1014E400BA301A18CFB01FACC4C429E51D1516159F
:1014F400EDBE9623A4270CCD172ABF10A5D829DC4E
:10150400E12CB8DADBF12821BEEA28381DECF0E042
:1015140017E588B5CCB8F1172C2BD5E01DA8E12828
:10152400BCE1E5AD18CBAD2CAFB616CBEA81F42304
:10153400FFC337062AA6ACE4B7C1A10FD8CF0FDA90
:10154400E4DCB2CC20D01ECBA7F2E1B8BB21C0F1C1
:1015540019B7DF1DD235D1C7B11CB626CFE9C2E019
:101564000635B824ACC0D0FC21E52CD528FB09D025
:101574001F02E7C6C00E99CED9C02DF3ED15F9C6EA
:10158400C49FDBB7FBAAFB2036CCF3BB2018B6C341
:10159400E6E11F29053807C4BB17D527EDA70903C2
:1015A400C2B1BABB10D013EDC0ABDDD6C324AFD0EB
:1015B400D1C981DDFDF3C101D997180D2712F2D4E9
:1015C400ABA60BBFDCF01EC7B010E0E4D4261AECC7
:1015D4001AEDEA2DEED7CBCA33D4FA0F321DC4EC80
:1015E40016B7E1E53E55F6E2C14EC966C12B44D8B3
:1015F400B3F860CB670974F7F005B221512EAF7FC1
:10160400D0E87533ED450720264BC8C9F22204778C
:101614004C371220F630A4F35BBD482D3362E11C35
:10162400BCC54F56C6DB4C1F65E231F41A3D25FCA0
:10163400B36BEF363C4BFCDBEE3BEC0A24B997C3AF
:101644006DC71AD23D6CF0C55DA01225D6BE09C780
:10165400A47086B33604725718F0C7BC1C89C1BC89
:1016640021E74A157FEBBD367CEBC636B538ED363F
:101674008309A3364060AC3688375437C26E1937B5
:10168400448DF636A5852C37957918376EDD2C37C1
:101694007056B53644A139375441C536997D2C3737
:1016A400ED3A0B3730EECA367ADB1B37A085CD36E0
:1016B400C56B9E36A0940437A9941A37D0E2E0365D
:1016C400C348C236E6864837D9DC8C361A42E1363E
:1016D4004E25D5361B8D243708A90837725BC436CE
:1016E4006C778B36A3AC7236EEA2C336F48B1A3702
:1016F400DB43DC36BFA56437E73BA4362C541B37E9
:1017040009D32837BFF2323760EB1C37046FA43695
:101714004C270C377C3B0237D36D3437ECE5E63687
:10172400599315374F530737EDA92437AC75E03675
:101734001CC52C378F431B3708C81337379C6737B2
:1017440044F85F3796CB08378D50B23682A4893679
:10175400AC8FF7363C05B2366EE0AF36D184BB367B
:101764001B599536C9D56737D91BAB3611B4C23668
:10177400FB840037EEF585366F50A036D1EFD036B6
:10178400261DA23607AAA336440D4737D0B6E8363D
:1017940069D09A36CAA695365F045C375217D43698
:1017A400C7551537DA20BB3679390237D1FF0B37E5
:1017B400556C8F367A6C1C373E6F1E37D4DF043776
:1017C400A5C91C375BB059378D31073794F71037EB
:1017D4006DD7F536B90AC2369AF9E236C9BFE6368C
:1017E400CA2FCC3666A51037CC9EEB3676A33A3793
:1017F400145DBC3662E7AB3675FFBA361BA3B2364E
:101804006EB9A63607BE0737BE242A3752380D37BD
:10181400D8089E36F442EE36752F12378499ED3689
:1018240068981E37D2B94D373D563D3735B5033725
:101834002D0595369A81443749B02537E75ED6366B
:1018440021561B3780DD1337D848B636F86FCC36AF
:101854007EA6913629ECF3369F70FA3650880A3703
:10186400CB0BB43618C5FDFF164CFEFFB2F8FFFFD4
:1018740066A8FFFF36D50000B544FFFF2B640100C6
:101884000B2301005FE60000FC6AFFFFC72CFFFF8B
:1018940013C4FFFF3CC70100998301009A74FEFF43
:1018A4002D8EFEFFF48FFEFF69A700008980FDFFE7
:1018B400B88BFCFF974A0100C3BEFFFF9A3D0000AE
:1018C4007AEDFFFF5171FEFFAD970100871F010004
:1018D4006B7FFFFF1D4500001063FEFFA9FBFFFFA8
:1018E400BCF2FEFFE9660000E62CFFFFB31E010018
:1018F400F22701003E8D00001FA9FEFF6CE6FFFFEA
:101904008220FDFFFEB20000826C000014B3FDFFD4
:10191400AE61FFFFF3A80000641E0100BC17FFFFC7
:1019240074C10000EAD7000042C90100FFFB0000B7
:1019340019DDFEFF2FBDFDFF68A802008644FFFFEE
:1019440033520100A1FEFEFF3DD4FEFF460C000011
:101954003BF500001B7FFEFF1FABFFFFBB0CFFFF2F
:10196400344CFEFF0DCE00003B61FFFF852BFFFFD3
:10197400F39AFFFFD2B2FFFF5111FFFF896200000B
:10198400411E000062A4FFFF692BFFFF9196FFFF39
:101994002C6CFDFFF2E90000504CFFFFCE30FDFF40
:1019A400A86CFFFF583FFFFF2FB7FEFFF4C4FEFFF4
:1019B4008FD0FFFF834200002321FFFFE7E60000F2
:1019C400F3970100A3F70100AA7E0100C4A7000059
:1019D400A4790000AA04FFFF080E0000FB8F00009A
:1019E4003D84FFFF3C70FEFF8108010060FA0000A7
:1019F400113CFFFF443FFEFFDD8002000969000047
:101A0400AC2CFEFFC527FFFF6C1E0100219F0000C8
:101A1400923B000050860000A732FEFF811E0000AA
:101A2400A24D0000181A0100A630FFFF073EFFFF79
:101A340081140000076F01003A01000034320000F5
:101A4400C94500000246020045A20000A855FFFF58
:101A5400D184010032EA0000F5CBFDFF34A6FEFF7D
:101A640063ED0100E57C2E3BACC1363B2BF2593BC8
:101A74001CCA153B975E1E3B1FF9C23B25F78C3BE6
:101A8400A584623BF2809E3BE4158C3B99D19E3B3E
:101A94005C9A263BE78BAA3B253A353B8D799E3BE6
:101AA4007DD57F3BF3703A3B6D318F3B7BD23C3B22
:101AB400648C113B879D733B2A058E3BDF9C4E3B18
:101AC400617F323BA83BB83BB56A013B6AF44E3BAD
:101AD40093D3433B362E973B9C1C7B3BF166343BB4
:101AE4005322003BACF4DE3A6BBD333B2AFD8D3B05
:101AF400095E4A3B8F11D23B9BE3163B1EB58E3BDE
:101B0400411B9B3B5F68A43B3B2B903B9112173BD3
:101B1400E8C3803BF04C6F3BA6C4A53BEB22543B8F
:101B2400F76B893BB4A8783BB048973B99384E3B58
:101B340041BB9E3BDAA58E3BF9C5873B66CAD43BC5
:101B440061C5CD3B1C5C7B3B5BD3233BB2EAFC3AD7
:101B54000D72633B298E233BF395213B2A482C3B92
:101B64007536093B4AFFD43B8C341D3BF7E1323BCD
:101B740031276C3BB926F63AAD49133BA4F53F3BFC
:101B8400F4F0143B955D163BB6E0B63B09CE553BED
:101B94000F3C0E3BD47D093BB523CA3B87DB423B5C
:101BA4006633893B52EC2B3B3D496F3BA39F803B03
:101BB400EEC4033BA5B68F3B958F913BB627743B90
:101BC4003E0C903B1F00C83BAB6A783B0F30853B13
:101BD40094DD613B6146323B3488503BE1FF533B2B
:101BE4006C983B3B8FE4843B9179583B1E79AB3B2B
:101BF400DA0E2D3B8BEF1D3BA4CD2B3B341F243B36
:101C0400552D193BCC6C793B85519C3BBFBE813B28
:101C14008131113BC8E65A3B994E863B1C4B5A3BDB
:101C240067B5913B6F02BD3BC4F3AD3BFF02723B12
:101C340059E9083BFF89B43BBB39983BB1F3443BBA
:101C4400EAB68E3BB2D9873B1279273B63D33B3B41
:101C5400C3D0053B3B1A603B1F17663B4A8D7E3B56
:101C6400956A253B00000000000000000000000011
:101C74000000000000000000000000000000000060
:101C84000000000000000000000000000000000050
:101C94000000000000000000000000000000000040
:101CA4000000000000000000000000000000000030
:101CB4000000000000000000000000000000000020
:101CC4000000000000000000000000000000000010
:101CD4000000000000000000000000000000000000
:101CE40000000000FBDAEFF1FCEC1B400D01EF02F9
:101CF4001F06F90446FC401D28F0032111B50AE132
:101D0400DCDEFF41C81AC413E403DD29F20FE81234
:101D140008F9EB11D5DDE9D520361402D3DC0DD258
:101D2400016940E2CE02FCE5B1FA192D16FF1E0B43
:101D3400DCD7EAFDD34301C607EBD3E6021B0C5CF8
:101D44000F11041F26042FF8EC2914C4B61EF11237
:101D5400D947EEE841ED021F12FF3DF92AB52A6189
:101D64001F0DF00A333C1B0A303138C80F2BCFEC5F
:101D7400102D2B1F27F33C271E03C20CE330F14028
:101D840009E9340425FAB9FB1ABB300A34D8F53B07
:101D94001FF6050A083D2D3A1848DE152A14E134C9
:101DA4000BE040B9F0F0F20959EAF7FDFE00E64510
:101DB4000531F009DCEE3320F8DE09001C0B0915AF
:101DC4001F0F1500710CDAFAFCF43813FE08D61A4A
:101DD400347F022AF9FE3C11F93130ECFDEF32D6A2
:101DE400E2071E2CD5E0FD2310FC4B1F1CF9ECF57B
:101DF4002AECF5212FF526081BFCDEF9F5EBF1F8AA
:101E04000EEA280BB112F52BD8E91323EFEE02DB0F
:101E1400E3E9CC3FE6DF0CC7392D0402E1D933CA2C
:101E2400380918FAE918F315E8E20BE9EF0C431F37
:101E34000CDBF4FBF33AF7D118F5BBD1E130FD2DFF
:101E44001114D110E7FA22FFE108200ED0FD05415C
:101E5400F224C9FD6D132B1D0FE1410016C03B4D4B
:101E6400DF2CE8261E0D4A172C2016D1FD17E3F2AD
:101E740051F97FDFF2D53819FD0FFC25EC200C2336
:101E8400FBF51BF7270EC8FCF7EE0111FDD5103941
:101E940025F337280623F0132D36DCD31700150B52
:101EA400EF1F1ECB130BF9FE54EA0AF8E5CEE41536
:101EB4001C0DFD10D824520906E8FF0540ECEBF791
:101EC400230519EC3A32E50F10FF1D08F6F5DC0F77
:101ED4002E671A16040510E3D33BE90F01121DFF08
:101EE400FCFB0EEF1639FDC0F83805C858260C1B4C
:101EF400EAD50505AB3BD4F505D90B0E182726D931
:101F0400F8FECFA6120641F7DF0A2F210152F4FA98
:101F14003C0AFF1D3E3CFE3215BDD4F655D4E00FFD
:101F2400D4ED0518E1F034EDEF0837330C2478FDD7
:101F3400EB1B73E116E30D3606B50006F52948F7E9
:101F4400B0B3ECF9FA0BD8FDB40E2B2B10C6FC0180
:101F5400F11FDE20363781F2DDFE93FC1410E549D3
:101F6400DD9B05F3A6B2CC7547B9CE465D7F23D77A
:101F7400AB04053CF0FCFFF718E5DC21FD1B0A3639
:101F8400EFF7F924111623DAD91F1504C5F4F3F277
:101F9400CE060540E8F619344EC7C1F9B32B011D2E
:101FA400F6090B4A08E70007C4F30BCD0322FAF243
:101FB40032F31C101E120B1AE20D0DE6C7D516EDF6
:101FC400EEFDCF25E90D14D2CEBF0AA6F40C0716F8
:101FD400B5D71015FD10F502FFFEE11CEA14D1502F
:101FE400EC3DF2E7363419C2DDD9191F030EFEF6B3
:101FF400F2074200E39324D90C162BA4B728DF2E52
:102004000E12F3D4E47F0DBFD6A92C0637462ACF8F
:10201400E1EF4C12E0C8BF44CF2F0EE7152529F499
:10202400B4442F3A19DFDE2A2DD5F43E11B10AFC4F
:10203400BF383C2C15FA3520D03949A00EFB31FAB3
:10204400C4F80862DA47D5E02654DF28C88E1E9308
:10205400FD49F2DEE936F4482F06D9E64AC4ABF569
:1020640060D9170FE40ABC0EE4F92E01BB321EBF7F
:10207400E209DA45EF0BDE01C807FAEA17F1FDEBD6
:10208400255D354B2D0DE53A001D07D80706AFB485
:10209400EF1BC60B172BD6280719DB1323CCD69AB4
:1020A400B8D2FA27DE2F2AFC18F408CD1A1AECE667
:1020B400FD5019F1F507C8F4DC1E52E2E23608C7F8
:1020C4001C0D4521370E0F1437313509AB2B23D2A4
:1020D400FB1A44EBEFF40646F9CC0DE7DFE5E9061D
:1020E40013046D0036D8DCACF51AE2EF14F6F5E80B
:1020F40002DE22E21CE1FCCAFF8DC00FE107BF5CD7
:10210400E42C11E4E40E25E40233EFE1FEDA32F7C5
:10211400291A3E1FDECCF810FA5D14FFCA1D2AF5F9
:10212400F9F1EEFD0416EF31F7F9DE0131E2D61EC6
:10213400F8F9B1E9C3151B1FF8551FBC0DD1E70C05
:10214400FE47FC3924E40727D0B8C903EC9BC6B981
:102154004D0326D9E81D0B1730F61C0279DCEB146D
:1021640016FD20CFFDFC1A01D3B140CA1FF1FBBDFF
:10217400FAFABA06F6D549D4313629E2141F1A5CA4
:1021840068EC1807D350D6050F0C9A01420B0CFECD
:10219400021F81A1D942F33202F7A7F807F73300EF
:1021A4000C19F14493090C182900E402474B030B62
:1021B400ECBB0E33E0A729E0DD20E8E81C22C43E96
:1021C400C5F47642F8CE091508EE1CF0DD4C10A0DB
:1021D400E200F12F153D0C3BE53A4DCC06DAE6DE84
:1021E4002C160DEEC81711FB38ECCE1BE70DF6E6E6
:1021F400DED6F93E23222DE603440EFF19D3F4D98B
:10220400F5094B550B070EF817F218371DE4F821A2
:10221400D5E72B092A242EE7E4F5C733E7F5EB05C8
:102224000923D0F91C2510F6EF0E11E4C028D5FFC0
:102234000B10DD29091A00D11C1D164BF0F1D30532
:10224400220311010B28090402086BE8F929153F40
:102254001AE3F307E8F21E2712FBCFF8FDFD220D67
:102264009E0FEB0A25397FE9070817F523B9EF1408
:102274000BF723E0F7F23005F8DC0E33F4D02EB37D
:10228400EAD92607BDF7D923E4EB250CE22B31E785
:1022940008130800F2EAEFE4FFFA294D17ED0E05E2
:1022A4002705F7FE2B20D2FA1902E3DAEEF0FFD766
:1022B40002D20013E0330BD227E3FEEF11BE030D6D
:1022C40025F2230022BA36DC22D6D60C16F4F9FD08
:1022D400F6FF16E7EAC7F1ED10F10D12AC1821EB89
:1022E400E0DD010A1CFBDDFFD306250616BD00F860
:1022F4001A0A00F10B0DF7F2F8C51B19FCCDF147D2
:10230400DDDAC8B74200E900EC30C4B40DF1E810DE
:102314000B14F3F1EEF0FE08F505EFD5FE193C3D84
:10232400FEFB10D606BFEAE4051BD7F00904E6F667
:10233400DFB3E5E3E6F802E2D2DD35C6DDDCFCEE30
:10234400DF0D2EE826D027F81AEBDC1C26F3DAD0B2
:10235400ECF7091216E00CDD01261614FC26F0ED4C
:102364002718EDDDE1E2AB17F2F709FEE82515C702
:102374001112FAEB1FEADB00EC2F05B5273FD4203E
:102384007FECC70A1325460143D7EAFB0AF8E0F1BC
:10239400D11EFB3944FF26D2D320F8CA0CE90E3BE8
:1023A40023FADB02D20C101CDEE71A1654F4F60AE8
:1023B400E9E9DFFA0AECF2181D120C36C12CD12916
:1023C400BD25C510D727CDE6F208D6D8D725E10D0F
:1023D400DF03C3E11012F7090B22FAD545BCECFC6C
:1023E400FE161704D2D93BE137DADF28B82125FCE1
:1023F4001D29EA0BF9062AEE0640EA10FF1ACAEC78
:1024040067E51671D3D00E3713E219F6E4EF0BD754
:10241400A9D1D3EA0A17FFD6081FDD59061AF30C0F
:1024240025150510DFF5F5FBE1E7131F815CC813E3
:10243400FF2C0D64DB0808E829D6E509FA1CD0E373
:102444001F4BEFE5ECD3E9011BE2450017EF1354F2
:10245400D805130729F731060EC21A08C1050CCD99
:10246400B6CDF310493E6482F1F6C10A31C4E1628B
:102474001B36F8F5DE1F23F4D3FC171CE9E2FFCF6B
:10248400C507C915C3F8A306E2FA3FE9CC363430D0
:102494001ABC07B5FEFEE9FFFB0D2CFE173816B279
:1024A40010090DC612EB0A10FAEAF5E9F91807D07B
:1024B4003DD3C603EE00C1D900C7BC0901E3FDEF5B
:1024C4003F1D1CE10AA8F72116FF4622DE0C05EC8D
:1024D4003E2D1DDCEAE6E0F206AECFE38C1E450D90
:1024E400F6DC04F932ECCE2CE00EDAD539BD07085F
:1024F400FD0635F808230FFED5B55328EBD5F8278C
:10250400E0E9F98113E1E6E61916F1EF0D37060F5C
:10251400650AE1FDF304E6F8E70B21C2DEFD1716B8
:10252400101904CAF7DE09D9FC04DEF71EFDD9ED43
:10253400D5A4B5CD0CF5F9EBF110FFC4EFDF020023
:10254400B4DC140E2BE224DB0E0EDE0E170ADDB90A
:10255400F0071712CEE927C71413C8FB0C4ED01589
:102564004A17E714C1BE8B3600CB14F4E12EDFF416
:10257400D4E7D5FE41EEEDEBE334F9CFF824D80EE1
:1025840043E8CC0A0A332B13290ECF004014DBE5B1
:10259400DFFF012A00EE2ADC07331402B7EBEC213B
:1025A4000EE9FDFE030C040BD6FDFB154BF0F5E51F
:1025B400FC05E5E4EECC3736136A2B11E551E82629
:1025C400F4FA09EBCE3BDE09F32DADF13A1ACC1344
:1025D400E619D6D405FDBD0C2D3CF8F04FE7DFFE1F
:1025E4000DEA09FC011EE9E13322EBEC3619CEEECB
:1025F40006FDE5D0092A203306FB08060FD614FD94
:102604001902FD1311A2283F1E1E0612D5C7D2ECD3
:102614003108BBF4013B4D10E6DDBD201906CF297E
:10262400350908CFE4F235DBE4251FDADD7FE4FA6F
:1026340041C3AB2913F81CDF3A0A3221FCF1FABC7E
:1026440002DCF1CA0CCC2A0209E41EDC355C4A32F5
:10265400D7C03000F1C262F7FE07C436F038082153
:10266400D40AC60C3B0620390E3BE82DE8E50133BD
:10267400282031CFC80341FDCEDF3F3506AFDDDC76
:10268400F0E0D6E8DDDAF61AEDE5251BE806FC13E2
:1026940024CB5D06BAEDF31124EC312421402268E9
:1026A4000D0FD7F340EFE114030AE7FEF6EFDEC99E
:1026B400C8B10EEB192DE9EE5B00CF2421ABFD3C34
:1026C400E12315D3EDEC0AEB15F2E206F8CDECF6B6
:1026D40030E500F5F304F4E94A01FC0B0515F8F2C2
:1026E400F6041D2D062208053D1413D73420F503E6
:1026F4000E00E32804223C23DB361D45FEF215F3CD
:102704000D1A000251EA1850F6480CFBF7EDD0FD03
:102714003B1505F030014817E2DD3A0B2022EDD9D4
:10272400F1D9F7E8DC161F0C10FBECFAC5691709A0
:10273400E51E0AEFFE14FC0112E50F330CEE15CD75
:10274400C922CAE8FAFE04F00E253301F623FD225D
:102754001AC4030EC7FC25DE10DFE41CF8F8ED40B4
:10276400E5CD11F01E18194117F8ED1107DBF5241A
:10277400180862E5E3153521CCF151F601D4E5BC26
:10278400FA06F63ECC1708EBCC061B22C90EDB2951
:1027940022E23E22D2CBFAEB7F0A3929F02D251E04
:1027A4001F2CE6014AD1E520F1DEF416DBFA01A87C
:1027B400E7CAE4170BEB29DF43B5ECF226ECE5FAA4
:1027C400E50F1CC429E1E6EE05BDCBD833EDCE28D8
:1027D4002DE7F7EEFDFDE2F82AE7ECEEFFFEE04818
:1027E400F6FB161E0438E6F5F831ECEA6B09EE2820
:1027F400D4EA16EED004E3D71CE7F51010203DA967
:10280400F814C9DF1FF7501B0FF91A19C64CF4FB53
:102814000F1818F14E2AE93A0EEEDD005B1DB6459D
:10282400B3D9E9D0C7F5F30C443616C631126307A1
:10283400DE17030633E0E41004B12F7FEF074CE406
:10284400D7B737E80538C0230CEB05F6161CF20E93
:10285400011200340226D905EF369D2B0501FF260F
:10286400EFB601D0D4E7E005181BF032314FF8E49D
:10287400A3F9EE3F0F02BBDC19FEF3E203E83820B4
:102884001F3AF3120C3F54EC3A4139FBCBE3E4E139
:10289400E51C4027F3C7F41D13B4D6CECC0EF53A8D
:1028A400CC14F04C23131026DE14FFE71725FCFC90
:1028B400EDFF23F41D281EF3FD2105049A03FFC335
:1028C400D5E09C1BD62403C5F2FBF2BDFFEE1BDE54
:1028D400EAC3BA09091AF21FFDD100011101E6F099
:1028E4000831B5D21AD6BE2BEAE6F8D8E9DCEA11EB
:1028F400EAF407ED34D2CED3DBE3E6130BF3E43A88
:10290400DCEBF6BEE5000AC40005C5AE11050E08F1
:102914000820081DC5DFE8D5D92CCCD8CF05201D4B
:10292400ED25F3E60BC4BAE1E6FBE1FEF7EEBCEEFF
:102934001CE3F2D0230DF40AF13F14E8EEE3DB06C6
:102944003140181B09DE2BEAFEC7D912EC22D1D87C
:10295400083000E716D523151EEE1C111626F8DDE7
:102964003B06FE1D12EAF9C3C91B05E6B9D9F5E613
:10297400FE1A01F60403E0E81223D7DB0414F81F5F
:102984004A05E3CC1F0016092A1BC407390218D7CD
:10299400F007EDD42B1E20158111F2FEEAC71C109E
:1029A400EEF9EFFDAF3D12E80B05142B1D03FE1AE3
:1029B400D125E00D26F50DDEF943E5240E10F602CF
:1029C400FAFFF10DE22607ECEC4C1508FB0704E9CD
:1029D4000303BF181A0215BD0414FFDE2DF4CFD96A
:1029E400111FFDBFED17C1F3EBFE4B3FFECDE9DD3B
:1029F4001E0EF4B4E8AECAFC27231581BAF9E92BFC
:102A0400D8FE3839B429F322D5E1F0DEFFF808B94D
:102A1400BD0B051ACF8DC329E74F251EF3D137FC13
:102A2400E43600EE55EDB5E5DF02BA4006DDD80028
:102A3400D1D8BAFEEE22C5DEDBF908CDF7DD041EDF
:102A4400EA08E8FE20BA26F1050C0BEBC3E8DDDC4E
:102A5400D0CEE4CC1FC3D1F7341E3CF007DE0AF31A
:102A64002DE70800C704A490CDE40002DC50CDFC9F
:102A740017F7B4E01BE8DA20DF31ECE10145F11788
:102A840010EF4C340EF13513F1EAC2EE5CE1C2C42E
:102A94002D1DCE145B1BCD34CF51CB2F0320EADC8C
:102AA400E7C721EEC215412F022439310A17CD2878
:102AB4000954D1E503B504F9EE0A1AF8DD17131E1B
:102AC400DEE75CFE2220E86CE84422FDC019E8043D
:102AD400B13C181909E9213BB7411DCF00EFE0E2F1
:102AE4001EEA57E4F9221A19DBEAE0F314EF21E6AF
:102AF4001114D71E010611FBF1FA36182FC7C6FCB4
:102B0400FE09E724DF0F0F0EE6030D4427CFE41C74
:102B1400FAE3D9E9DEFAF4F3DC1DEFEBF2C921DBC9
:102B2400FA311F050CFBF0F4B2FFF4FFF1161AEEB4
:102B340003010030EF41D5F6073CC411F8D3D90D99
:102B44000C3113DD3D0D1800CB062FFDE1F01924E7
:102B54002A071FBD1BE70B1C02EA15FD2AB8411109
:102B6400C923C713183D7F1AE0DB44FF1C0BEBD7C6
:102B74000C1026EECBD3232BF024310AD2F6D52A1F
:102B8400EBE1772620DED8370AEA11200633EF542A
:102B94000F0DDC2DF71DE423F71B0E4E25DCFD077E
:102BA4001003FDF0DA42F9172F25550FAEE4FA436E
:102BB400ED12F6F60253270E1CEBE12E10DAFD455A
:102BC400F1105226FA05EB4B10E1DF04DBDFEDEFE9
:102BD400002D2F020C014429D520F614F931FADE18
:102BE40012DE0BEE1E10D8F2D131FCE57FFCF9FDAC
:102BF400FB1BFDE1CD40FBACDDADFF22D80A08187C
:102C0400EF1FF8C3E60B10E8FC14EC0EDD46E1FD03
:102C1400181E0215F23BC82C4F0F3CD721CCCB0B0E
:102C2400C6F0FBBECC2608DF1726EA9E39FD5722E4
:102C34001BE936D9EC141020F1F303FB0F2C542DAF
:102C4400ECC62CF131FC0409C451191CF64DB6D95B
:102C5400D009D22D04D9C1FD3B09E5030A0CDE24B9
:102C6400F0F221F410DBB75E0FD8290B3137E1DC29
:102C7400D61CFC090111D20B1DE6CC01012B1E4E02
:102C8400F20813E9043100E24318FF1236860028E3
:102C9400EF0DF61E16C923292A09D6FA093D140692
:102CA400FF1238101A0006F6D212081F1DF1E4387C
:102CB400DA2211FA23D85572BC2B5E11E91303F7FB
:102CC40000C5C0470032D3F810EFFAD2043CF30732
:102CD400D0E80D09FBFF1920E72427172B23D61969
:102CE400392125F5050B23C409F9F719244EC5FA32
:102CF40001E1EC12F8DC1E2E0A38F19DF32125C403
:102D040037F2FB0DE1FD1BF5FC055E5FE408F309FA
:102D1400FFF409F92CFCC70BE221F2FA260FA9E310
:102D240042DEFF2E1F1624F904F1241F1BF218ECB7
:102D3400F133141400DE0B04D6FDEC29FF230DFD42
:102D44000AFDE9ECE21D9AF24AF20AE2C6E60C65D3
:102D5400D20723E7DCECFC13F9EEE912E8C531B441
:102D6400FC2D150B2D1436ED262CF900FD020A3628
:102D7400061321E0D614247FECCD2B39E3E72BDCBA
:102D8400E22C7CCAF8E638FCD7F514E50A01D02514
:102D940020044DE5ACFD24300CC0EF1BECCFFF212B
:102DA400E11933263F0EFFAB19FD26F1BC1B2AF8AF
:102DB400D26DEFE30300FE02200510E45E1E28F44A
:102DC400F80A332C23AC31EFF9291C48F3D6F7DC8D
:102DD4002014444FCCEE37C8E0E6F6412E10231001
:102DE400FCF8030A0611224A3BFBEDCC0E1EFD0F34
:102DF4000C3AED101C3E3417EF204F240EF81E132E
:102E04000303EBFD2BF4EC251C65DAEAFCFEE8F485
:102E140039F3C7D6141F2305B0E92B28E641ED3654
:102E2400E4C91C001BDE29DE46FF271CD12DD6DE9B
:102E3400EACC812918F0EAF113050806EDD9DEB0D1
:102E44000807B80100C128171600E5E80110040DB1
:102E540028C83EF7D7C91BD107FCEE1C0762EC114A
:102E6400F71BFF21130E043DE7E5C310F5ECE90B56
:102E740014EC34D4120119D4DB0444EADBEFDBE6AE
:102E840017B99D14E1FE0011F816DC01C557CB1FDC
:102E9400080B351917D4F7CE1BF319D2F309F9210E
:102EA4000EF0D9031BF92E18F9EEEF1FEBF401A96C
:102EB400F2B6F10B17F80CFC22D3D51805CFEF149A
:102EC400ED4CEEEE02F7C201E509DFFB0910B7088D
:102ED4000BEC0C9EF8F4CA25501700EEEDDEE70863
:102EE400D9BE4224D22D15FF10351D292AFAE4D962
:102EF40006F3EE2B322F2435FD1C07FFFEE72CD6FC
:102F040057F2347F10F11705E403254114E8DFE894
:102F1400EAE6E7085D19EAFA03E4117C2AFEE7EA27
:102F24000AEE2611151B37D812FA0D0BD91C050D04
:102F340028F22813F81DF8ED0F05162ACEFDDB1A2A
:102F440006E3ED1B1E09F63DDA1D5E030A140E317D
:102F5400F606FE1A0109DC22EE07F5F1E2E12E5233
:102F6400CFF6CE022D335B4E1A0910E839FFF2F783
:102F7400181C13F81900311DDAD9F617F8FE0BFDE9
:102F8400DAFEE521E60218D90DF63604E61732F129
:102F940013F232FC12F6EFDD0D0500062706FCE9FC
:102FA40016FFDACB2C04AB2305ED02EED2F721E3B6
:102FB40047010EFCE0F6252E14B902F20CEBE6E113
:102FC400101AF9F3230D27091B8F0F0616E5D433C6
:102FD400381519FB11021D402001F02ACC2B3A05AB
:102FE400E31C02031318D0FDC63F3200F42A0A2B57
:102FF40021062A49021F12C95AEFFCF51B1AC417ED
:10300400DF181F36A63B12F2D100FCD90EEC35E7CF
:10301400EA2E122DBFEAEB2F391C1DB5E5D812BFDD
:10302400F47F2DD4D528DE3B051415DF11FD53366E
:10303400E71F041CEA3D0CFE0FE3DE293920292D8D
:103044000C1C4022F4332C01DA082B29C70007F2A8
:103054000D5929182219CE2E1D0942ED26B51F53EC
:1030640002F809EA27164F070A0F33CB0A3125C89D
:10307400282C2E0830F7E9023800E811FD0A08432D
:103084002C2144121C22C20F0415152515DFF4351A
:10309400061DF626E3F117533723B1093907DE2A53
:1030A40023FF40F8F965EFEB3AF80B02D60D0F1148
:1030B400D1213A082A1DE816F90F20E714E328D095
:1030C40035D9FE4A48140D3B340016EED616245D5D
:1030D400F943CF14271A56F5D4460DFE0DE20C8E93
:1030E4004607EFE3E608CBFCA03DEAB34FFED82544
:1030F400EEC861E0B05FFBF1DCE446C4180042A90D
:10310400CD0CB7EE2EF0360901E71AF6AC4AF62ECE
:10311400381244FF1F43F2221AED1B0B2ADD8647A7
:10312400FABEF101871B091045F1E31D3204550075
:10313400EF28010819F6F11601FE517705F63CC98E
:1031440002C745A0CB05926CFF15BB39FBE8EF28FD
:10315400FAD4EB30A223FADED8EAC924FC1CBF005F
:1031640012C2F0BBC8E1A01C2FFEB27D091B16FBE6
:10317400A8E6E712FB08EFE6EE042B0CDF0C42F1A5
:103184000409F72BE40927C0F207F6089CB2D81902
:103194000FE7183DD3D3DD3830D1FCB3C8D5F9528D
:1031A400DFFE29084CE71D3EC42C0AF9F4D00FFFBA
:1031B4000FE1E8D409EB0A512C3EE7E88106FAB2A4
:1031C400C7F6DB41FEDFE7EF3AEEC4D12AD8F12996
:1031D400EBCF01D7C2F3C0C5EBDEEB300A0895286C
:1031E4000060AFC1FE3D2FDFDD6DE8CF7F34F41EFC
:1031F4000EF125F8A14514EB04FB3AFE080E2DCF81
:103204002B05FEFA200107F912F01906097E1C2F7E
:10321400231DF41236EF245224C5EE0C18ECF81CCE
:10322400C4E3292B092D04FA01F30C12230371E4DE
:103234009F2920E21E0800282FB600060E2D1F0B22
:10324400ABD80DE3E421CF2AE008DE1CF8CBF3521F
:1032540013E9EBFE0215D0F1E508C7DCFDC9C66130
:10326400069D2CEDBC9EA76530A29002226421FC31
:10327400CAF2ED1CDDF00F0AFDE11725FB0EE82470
:10328400BC25FC15081413C4BDD31A30D101ECE7D6
:103294000DF0E860D5FE0E2349F0E1E5D2372BD6D8
:1032A400D705176031050F09CDCCF4FDF20714F0F2
:1032B40036EE0517F7F52E51EA064AD4F2E2F9C6BE
:1032C400E50EC12BFEBAE62435BEEDECF8F6E9189E
:1032D4000AF20DDFF823CE2812E7060A17E2E743C5
:1032E4000928FAE2E9D3E9A64EEA1312A002E5E5B9
:1032F400EA1B21C9A1C7000708F4CA9DDB30E30615
:103304003701FEDBEA2354D8E5A743FB3146180B0B
:10331400FF23441AF516E654ED32D2DE2E55EEEABA
:10332400B815CD41EC2FFE1E18DFF513F4C2F827B3
:10333400D95721EC7FAAE3210CEA56F2002CF7DDE1
:10334400EAA51939E713E3CA000AE4F7ECD5D88CE7
:10335400FF1EA813E427E245221B110430F90FCC09
:1033640013E34216F80BFBF936262AE52A3E0FEC46
:10337400F43C2C0E2EF1D52BE3DEC904E6DB16F368
:103384001DFC4DE0FEF90010F47019E8E80F2D0D56
:10339400DD4AE7C83867DD370900D7D938EB27E1BC
:1033A400C3D7161EF228D5C0B74017A72D502EE557
:1033B400C9231CEDD6F1C1E3D124F9EDDF1554C7BF
:1033C40013F01840FCE01AE527042CF6090A19BD8D
:1033D400A9FC4C540CE9D9F923250E04C3D5EF04F8
:1033E400202D31E0F23014075728DEFB3F39EDDDA4
:1033F4004409F1E6132B2B20EA01391D00F310AB2D
:10340400692B052704A81F60F224F70CD4E2D6E543
:1034140044F3F4BA20021AF5E0CB0A71090809F75B
:10342400190A1306DAE008F7152602E7C82B040880
:103434000725CD39011AF5E335F4C84CF60C2DC631
:10344400E4FDC9D623E50D3AFE463010F4051E1DF1
:10345400FCB20832F6D20BDEDEF4BF1FCFFD0A2227
:10346400E5F403171D06E40212D4AA282B06BDE7CF
:10347400D5FA2D08EFD1E30DC9F64A0DE8DA04E4D4
:10348400C1E3DF5ADE2424D4D0F65FE1CB2212114B
:1034940012B148FC01FC0DEE7FE608030E28FDE4A2
:1034A400FAD4E9F84612091DF4EAEF0DA9FCF6C0B6
:1034B4000DC6F5DDF8C014CF32AA09FC0DC9F2110E
:1034C400D63411D313220D1006E9E804ECE8E1D355
:1034D40034FB1FCBC908F4200CFDF20AC60F1250AE
:1034E400A7D6260CC7F0382953FE0A33D41AFEF7A0
:1034F400FB14FEE2E8190C1A0269F10F04F5F52A2F
:10350400E01A2335E513FDFE00DB112605E2031165
:10351400C8DD050C19FC2926E5FB1EF117EE19DDA3
:1035240026021C0B24010AE9053929FDDB08F0E415
:10353400320FB537F513FFF70109F10BF500DADEA9
:10354400160ACB0709F70909CC0E1CF903241A2221
:10355400EAF8F7E2140B0A460FBF2D20F6F00F131A
:10356400B611E6FE3D557F07FAD307C8FC120E31AB
:1035740007061AEADC0612FFEDFF051B1CF811F31F
:10358400EC070BFB1AE7E41D0312EA15ED242036C1
:1035940005FE18ECF34501E30DEA213445072AE062
:1035A40025E1F9BDFCE0F2141BEDD0EEC9F0F60400
:1035B40003E8F601F30F51E92FF2DD0E0AE31B11C4
:1035C400332123D942E62009F5ED031802021A1229
:1035D400082122F906C8FF100215EDFFC41D1A1AAE
:1035E40011F80B0ED5EE43014BA8E90A87CDFFD89D
:1035F4001A06F70CE3F0F417F2353FF2D6F8324A24
:1036040001024BF1F30D0CF6F0FB0A0E1A25C9D496
:10361400DAD1C8FA25E8D332DFFD0B111236DBEB21
:103624000AF1072321EB05ED05C113F5C907E6EB04
:103634000B37F50F2422D7E7075A1BE0DD0881D4A6
:1036440003ECDFF62AECE8F82E0B21FDFDD5FAFC9D
:1036540025B4F1F5BDF449EC1EC505DBCFD1F2F577
:10366400062AE51FE63037F708F4F7C904FDD21B34
:1036740033F754D3C4EF1C09CAD93409C31BC6ADEC
:1036840025F843FBF2D4C538DFF547F4F124F418E8
:10369400052DEBE5F1F2E9D0E1F1FBF6D6DD02DB35
:1036A400C1F2FDC627E9DBC910F60AF719EFFFD20C
:1036B4000712C7F8CC02D420330B0B18503CFDC9B9
:1036C4001D0C640212E30B05FBE2173CFADCF1E883
:1036D400F71858FFEBC20AAC344FD834D21A003072
:1036E400DFC2083F1EFFDAC2FA0A1EB345000821F2
:1036F400F3FA30EAD6EDFCFEEFDBE904F334F1EB48
:103704000E2BDEDA280731080731F7BACC0C192062
:10371400460A23CEFB1E2B09EC0C16EF4509E340A9
:10372400CAF5DC1E1DEE18FD37271BDC1DFD070E38
:10373400C5E5E7CB07E2FB11F6E814220804260CE2
:10374400D2BAED17D7FDE7F43322DD011B0DDDDC22
:103754000314FE330FE4BFDD2514D228FC02C30F8B
:103764003BEF190EDBA0A9292DE9F31AF32DFCF187
:10377400B3E9D9342216F8FAF5EF23E3FC2E2F4EE1
:103784002721E124FD2A42F205130811F4D4BBFDDC
:1037940001EC1535320CE2FA22FFF48904183713D0
:1037A400F2F4EA4D02DC2923DD00E5FAE7250AED0F
:1037B4002DE7EEF416F032F3D8FF04C281FBEB0CD4
:1037C400C2F3E315C016DED8FD20F5DAF31BDBDB0C
:1037D400EA8DF3FEF527D2140FF3091AFCCDC917AD
:1037E400DD4904E6D00346E63FD1E037AB37E8F7DE
:1037F4002A03A22A00FA6419F54309FEF9CDF4EE6E
:103804007620205FF621E80907F902210CE7F5117B
:10381400BB12EDF010ED27FD1503066B0C20FD2601
:103824000E192D2CE02E08111E1D36BE9B2E01DF15
:103834001756042BF324FAD92206E7FF0F16FDD3FB
:10384400345BFAF9D811DAF224E6F8D6E3E5235E1C
:1038540022D5D20B04DA4AE1DE9ADEF5FCCCFDF186
:10386400A805ED45225D7FB037E2EC02FFD3FA39BB
:10387400302D3433D0EA3819EEDA2424F713DBB3CD
:10388400F62A18F5DB25CC06B9F64544D83E363978
:10389400EA0D41A9ADE227FAC5DD05371E0E38BC95
:1038A40009F107A22729C9FB15DB1DC8B2E1FEFDFA
:1038B4002E2211EFE13ACD1338B88807FCE10AE86B
:1038C4002B23EF0223B615E6F2C9FF2816F1CEEB3F
:1038D40024132801C303FF0FD2AAE227C6114C09FF
:1038E4000919362926E3A20FD9FE0DFD1C02D3F0D7
:1038F400FEEB1DFE0605D7F8D802F6C6ED02093424
:1039040007F1FC07DA31C9D9EEDDDD191B17050211
:10391400E62EDA0FA2E5D1F60E154DA3DAE410F681
:103924001E1A1000C413CC21F4DBF1EF0FE52DEBCC
:10393400ECFF16E7F5FEFA1A1202E8C7FF18FA13AD
:10394400D00711F713DEFCCCB8C1E2E407CFE001E5
:10395400EF3ECB132B1B27FB11EE68E4FEC6DF0DF5
:103964003C200BD20603F20ECB0017FB083B0306E8
:103974000BFFE40BFF14D3FA410A9BE92A2BF9103D
:10398400E70E0A1517F1F6F901E1CA1B3D81070696
:1039940017F2991518250F33D61CAB070807111316
:1039A400150328D5D80919E1F5CA0A33FDEA093AFD
:1039B400CA49F112FDE24126E4230606EA2F272232
:1039C4000F96011F113F230D14262DE038142505F1
:1039D4000827E60E29181FFAE41C221BF90A05E33E
:1039E400202BDA02F764F718DD6A09FF7F10F42848
:1039F4000909D9D5E51FF0231DFE391002FAE0F6B6
:103A0400EE21EEEDF10E024FE4211623C541DE1D39
:103A1400F8F8E81C0F45DCF51A0AEC0DE6FBC7E8DC
:103A2400A4100AFA18E3D9E3F329FFD3DD355001D2
:103A3400FB024ADC143F07D934C0F5F10A303027C1
:103A4400F11F090241DBF94EEA273FE8161AD61A9C
:103A5400E150A83F3DD7980AF8F920FDCCD313488C
:103A640020E4E3141BEDAC3314BF015F1D1004CD3F
:103A7400D9EFEA39FD08EB09FEF4B8E7221DF01C82
:103A8400F6FEC026331C060E59F02D0A26C433DE7A
:103A940011DCDA4A44D63D1B1B20CB0D313A0B0610
:103AA40026011047F0F9FB5BF1C6EC2FF2D4DA01E2
:103AB40040EA23FFF6FE0E21C5C744F8D1BF0DE24C
:103AC400F8DDC0EF1223CE0118D21EDB3718DA0E50
:103AD400234ADFFD08F3E60ACA1D22DB3710FA1376
:103AE4001A371FEFDFCA46D044ED0CEAD836F6D7B2
:103AF4004102E40AE1D21C1D0E42F117D00A231C34
:103B04003FFD2B3910BEE61DC5E1F91CE1DF08D6E7
:103B1400C5DE0F19160F2C13EEF91F2F25DEFABA86
:103B24002C1B10F2CF150C1725BD1B0BB527DA295A
:103B34000814F55BA7DE2BDE39DBF6F01618F1E38B
:103B4400522EC8FDEE46C827EDEB14E1E6E0044131
:103B5400E3F0F10903F135F5D3B54A00E7D9FFD90C
:103B6400BE0D2A1A38327B061202F5EC20DAD74051
:103B74004920150FC8022E50F3D12331ECEBDFF8A6
:103B8400DD11EA03F71FD70AC0194B1DB00B251A24
:103B940025F624BFC701FBFA3FF3E5FF7D0C22CED7
:103BA400081522EB2AECDEF930DCC5D0D5E612E0AC
:103BB40040200E05F5F2ED19FAE3BFED0106E2EC43
:103BC4002040DECC22B339EFF4201703E8F3E6E417
:103BD40024E7323BFA0124BEE8F7EE2981F03F26C0
:103BE400171A2510C40CD415EDEC024931FBCAE5B3
:103BF400F621D72A572F172D18D4DA2F00DCE1DE4F
:103C0400D0E1251EC0D60717FBD8D952DFF2E1E672
:103C1400E9F1C413E7FABBC5321213D9B8C8119B32
:103C2400F04839C5F00304C8A5130E22E01032157C
:103C34002A115604DA6AE4B8FE09AC22E637B53F25
:103C44000A2EF70954D22EFE0EF742DCDB0F0EFAD1
:103C5400FC39C7FA4EBADC39060100E3EFC8692B18
:103C6400E103CE37574C53DE3D4DFABC48ECD0004F
:103C7400391B3E120FDCFC051014B6F0CF000126F0
:103C8400E1E44F101EE9BCEC2ECB680F040F3A4858
:103C94002CD0064E1C2A042E0408EF172F29F23AC2
:103CA40052073AC5F839E50B5315F8E7F9B3DF279E
:103CB4000945FCEEDCE9051608F11DEDFC0D1CEFD1
:103CC40018F42F225AFAF702DBF34AF71900C2025A
:103CD4002B7FF1E4F2E516E3E333FDFDD922132C47
:103CE400F70C0A012E0206F9C3F30DF8A1132419E7
:103CF400F2F80F0CF8C716E61FF7D5C80E4200EF0E
:103D04002433D906F1FD2DFCCBEBDEDCF8292E2A79
:103D140011562B0DEA17F9FD1ADDF1ED1412DCF240
:103D240014F70103E43CEB400FF40C165FE22E1091
:103D34000141252908C950322C2D08043C351BF8B3
:103D4400FBF2FF27C446AB07D5F1DF08F089F7DCA7
:103D5400121E18ECE5280310FCC7F51529F9D2E763
:103D6400EEE640E70E03E9EE0902E924FAF13AEE41
:103D7400FA1D212AFD1BF903090CF1270BF218E2A5
:103D84000E0829FCECE7B518D61DD706E50F02147A
:103D94000401E2DDC700F66427F8F1F925D6E2E86C
:103DA400CC09183DFC3EF9C60B14E8C6F749E703F5
:103DB400FC022520B72F17E8F234F3B2D80C0FF524
:103DC4002414275604812AF0FECF2702DB54460030
:103DD400E6160B1C1E1BEBEFD9D31CD3BEDA18FB63
:103DE4002ED80EFCE2F403CB359EDE19021CC71953
:103DF4002524D8FCEADF3361404FDCE515E708BE33
:103E04007700076316EC3237DEEE0F0AEF000DEC95
:103E1400C4120314CB11F2C3210916671C4DB8EC6C
:103E240035C80429D34C140BE9E9ECD9FC38CE1479
:103E34003FF113FC2B1D071D1F00DB66FD1D21C078
:103E4400E821DBF0F002D534221AF9D6E508333341
:103E5400FDE30BD9351027EC10E60FC60CB815D3CB
:103E6400E9E6300B7FFA2CCD0C1DFD2C20EF1B0B4B
:103E740010FC29EACE1016260608F80615DF3F9E28
:103E8400A5FD560CDCFDF3BB28FF40E7023B4226B0
:103E94002004EBD1F0CEE2113EBFDA4F20CFFB126B
:103EA400E51235D336FACEE2E4D70EE6B9F931E6B7
:103EB40002350BFBF70B0CC2F7DF03F205FFEFEF44
:103EC400E3FF39210EF2F9D3F40C7305E6131BD08A
:103ED400731D07F5E80E0A25DFABDEE4F6371BFA9F
:103EE400FFF122071A133744E4F007DCFC21FEC576
:103EF400F9050715DFF910061C1364EC10F33CBE3A
:103F04002B18E7BB44EA0BF61A030DC6E0E4F4EF02
:103F140037DDF7DF0D432B0FF4B72AF1081CE21944
:103F2400FDCBF305ED11FCEE2C2720DC190A1D1640
:103F3400FFB8B32030E9050436E7FCEA07DC04B631
:103F4400E1C5DAD9FFEBFAEF2F10D1FB1A0454F5CF
:103F5400FEE73B0AE5033AE5D41DDB15D6E402F699
:103F6400E911FDF5FCDDE57B0C34ED0905E703E91A
:103F7400DB0630F520EE0A0BE71502EBD5C7B8CC0B
:103F8400E3E8D71CEBE2F5CFF601E8FFCC21C0094A
:103F940001F1223222E6DEE77F3922D3CE0A0C3D3C
:103FA400E70CC6D428E5160205DE41090100EEAD92
:103FB400FDCBEDE913E237170BE9E52719DFE5003F
:103FC400C84DEECC1F16E9EA0824C4F81EEEE11E23
:103FD4000F23D5D8D718D8EF1ABAF10B1BEEEB0183
:103FE400C2CF0712E743242C130AF5F56102B3117B
:103FF40012FC1CDF181FEC22F833190405D7C42760
:10400400E417CA213081E3412265F01EECE4E6D5D1
:1040140061E9CEB0D91DDEC1CDEBC220D9413B2E22
:10402400E62A04F421B6E8D30D48F0E2F4E719FED9
:1040340020A2D0D9C206E6D304E6B807FAAADACA9F
:104044004E07D81002C627EB16EF12FF0D21DC3500
:10405400D4C001261EC321DE0AF3F855F12CCA3060
:10406400FFDEB618D350A828D9CCDC1DDA348EDC98
:104074009AC8E1DA42CA22EFC31154FCEDF0D91810
:104084001AB09129B71D300E5003E2164916DFFE0F
:1040940013C9E708352301A01C2B44E61AE0322992
:1040A4004BDBCB0300E01D52EA071141ECC7F229B8
:1040B400D4AAD62CFE2249C545D8ED5EEAA4A73978
:1040C400E00B000B1602D6013409F4E6E42FA9ED47
:1040D40014F318B930EFD04C3337E9E4370BE4224A
:1040E400D4161D0CEEEC270A14B8F3D8EA1EEFB56B
:1040F400EA9AFC1730B32ADBDC180527D4274116CB
:10410400E3F9E123EBE1FADA0A1AF3F4E3B4FDE2AA
:1041140019D3ECBBD10C2507BF17E8ECF11BF5FA5A
:104124004A200232130A1F1F3EE4EBEB24E2BCDAFE
:10413400FEF7C2FB15D6E3EFD4324DDF07C2B92D2B
:104144000C202D2627F525ED2CA6FAFF1701040BCC
:104154003EC1260381DD271916120B0C291B17CD2E
:104164000E16F5FD12EC50ECDC5C3CD7E1CDED2DE8
:104174002921EFDF20F4330DF1EF5B06FCE528F194
:1041840011ED251002D6091FCF23FCE40A57D0EE07
:104194000AFF2BDD14F50201ED064FFBEBCB1723D1
:1041A400E404B5D8060001D72756B3EE2C15DFEB8F
:1041B400E4F4DFFB09A8A5A97BEAC924386418093B
:1041C400DD4C41E4FD0745F60EF4D221CCEEDD0EC4
:1041D400DC28F30BE0BA0DEE3204E0EA0A0AD60159
:1041E400B8E0DC1B09340F0C550CDA362F2C0CD537
:1041F400022FF02523FB101921DEC81913D5F7C2AD
:1042040017F8401CEDEC4223E9D8135BDAF1F0F621
:104214000FD7F734043BC1C73DFD3D74BCF714F31D
:10422400EFDDD009DA25E2E1E7F120E3EC3A16F517
:1042340020060900D82F13F6F403B17FDC25A6F479
:10424400EB12F8FB271C044F2917391CE3E6081767
:10425400DDED0F0307E80E470CE007BCCCA55423A3
:10426400B3D50A1D19284ECC19240BFF50B1D150D7
:1042740002DE35EEFF04483BECFE0805C3DEF8BF62
:10428400B408433E080AF5F909EF7FCF0C314328FF
:104294000CC434EBC910F1E1260F274520F5BFF417
:1042A40000D8F4B81AF5FDFB4003DCD3DC0527D5B0
:1042B400FD2613CEF9F126C009CFE7EE3912C3115A
:1042C400D4E82CD9260834ED0FE8032F0DBFFD13D5
:1042D4001D4D15EFE8CA110CE9DDF734D74E0C1467
:1042E400D3FB10E83336E3D3E83A11FC6CD8E50F7E
:1042F400100BE7FDFC29EEDCF6D9F05533D1D10FD4
:104304001324FABFF90ED71FFB3EF4F33240FDE746
:10431400420AE51426101B193313F803ECE83B0D8D
:10432400CA1EEFD2FAD905DCCE15FFF2D5EB000C8C
:10433400EEF5F581080CCFF60D08E405FFED193410
:10434400CC100BF154CD1C0C22432A11D823EEC6F9
:1043540017F90A1C5BC502F525F3F2DD17ECD73219
:104364002E1AFEFB11D3ACFD07CF0CEDFE0FFFBCE4
:10437400D2E5B34B14D7F6FA10E8CDB90A4FF0469C
:10438400FEC5CC3A253334FB1EE4BF2439CF03B336
:10439400EA1BE72615F83BFE2825C430C827FA1780
:1043A4002501ED34E4DC0541E6DC200203DE0C09E2
:1043B4000910171832FB2E14B9132619D9D8D41D95
:1043C400E5CADDD3E627B2F1F10C0FCD230FE925C1
:1043D400F8FCDEEC404BE516E71D29C823CEE0FED1
:1043E400150A25090C1FCF33E15014074E0CDC2AA3
:1043F4000B08FBDCF5520A2509C1313000FE13130A
:10440400D9250EC8FD180B2D1026EC0B0142EE2009
:104414000620DA13FC05C43F451139FC13D3EAFE28
:104424000518EEFBBE17FEFC001106D91D034D1C3A
:1044340013BB03CBEE10F91628D216E6161B5AF955
:10444400C9D4F8E8E9F11CF1C339311D1637BADFD4
:10445400E01AF00919FCEC192823DC2702FEFD20E0
:104464000AFBEE04D208C27F21CAF50D2D54F00ECA
:10447400CDDEE5112D02E21B2BDDFEF70030093BFA
:10448400D90F042419322DF731F3FB0A27990B05B0
:1044940018070C2C02EE2E351DF2DA08154A13F912
:1044A40006F31C222904FDED0BFA0336E014091D62
:1044B400F41E091011F47B5EAC1B3A01F1DD192BDB
:1044C4000BEFD4030E33D9091CF5CFD81911F61B01
:1044D40012F7FF0A3705093118232D302CE8F6FFAF
:1044E40028040BED02F3ECEC1B1EFBF560E7D2ECA9
:1044F400D71C1DF7F241FB050E0C461AFB04FB0DFD
:1045040020DE1E9048F01C092921E4F80D2005E561
:1045140061E6F4B8EDFF251BABE9F02CEE25F63E81
:10452400DBE60B1122D628BA1903EC4F0D1D3FCF41
:10453400F6FBB9C94212EAFEF121F312E4D5F8C937
:104544009FD2B81934A608DE27FF19F51204ECE946
:1045540013AE2DF5D9F6FE020929AF11E149F50094
:104564001C0ED208C2B9B0E2EACDEE1BC41ADBF8C5
:10457400EDBF26DA17EB08FAD90A34F9EDFE020288
:1045840001A40347F1D34F1008FBF2C0EC3406C07A
:104594000DE3125224F7FCD23E442FE69821102E4C
:1045A400F3EEBA1D0BF21E0B18EE09241817F98B43
:1045B4000CECE003EEFAE90B45173C1614DF0D088A
:1045C400813702F8EA412C2BF308ADF215C7EB153D
:1045D40004E4E0992D1ABF344426D1F025DDA80D5A
:1045E400D9BE1912D7E4193443D01606B413FEE821
:1045F4000D04FCE221EEF222187F0625F9EB0FF000
:10460400F9EA3D32F0F02EFEF8F2ED2A3ABB0E0341
:1046140001B9D1D5012F07DEB618F41DBE1FEB1565
:104624003302E61065DE0AD5F0151B08E016DFE25A
:104634005BEECF18FDFF00D7131C2C1CD6F08CECBE
:104644002CF0DD25370A33F805CF3C2F3C2939EC13
:104654000CD811E2F6030D2527EB1C0EF617F8F91A
:10466400CC18BB1321267AD4010022D8EDB6F871F8
:1046740009F53A8D3DE20EC6F7021B2510BCF08AFF
:10468400E8D1C5240FC8FF34EADDEE08D64016127F
:104694001FE00DD6FC23E4A6D5255261DDFFE5D449
:1046A400EC04DE07010FF324F5F8CC23EF00D9CE98
:1046B400EFC119F0E312FAA431DCBAFAF6FD000CEA
:1046C40026271CE41F0A021AEC06EB20CBBD1311AB
:1046D400E606DBD7FCF8CED74A37E0DAE95E0E13FC
:1046E400D6E22CE2D315FCFE265FF22059F1CB086A
:1046F400E72E0C0E2B6B110EEEF2F93BF5B8FCC055
:104704002DFD407DE91E202927E0F22C00FEFF0745
:1047140081E4F20D08259FF722040E52D3E8EC1C25
:10472400EF153EF6F002D1FADC09C8BACE0621CB69
:10473400480150F3DA32D9E1FE12E556FF0DF632A4
:10474400D40428CA15E9341DF91A2A1123240E2089
:10475400C513D5ED26EADC170A1F1BC8AE960A4717
:10476400DEC1DAE41BF1192527C0F4E03539CBF7B3
:1047740007FCEE1819D005FCF5FEDAC0FA261E383F
:10478400F1C8EE3A1816340020FA16CE50BE17F4CB
:10479400F3F4E32D1C042A103B3E1347243A17B0CC
:1047A40043D943E50D0F1724E4E32300E9BCE93AB8
:1047B4000C0DFCEF17DB4538DDE91F180FD0E71DA2
:1047C40003D20EFA411EEF0916C934041717CC415F
:1047D4003E10D8F22A12245C1B1A1B1EE95045070E
:1047E400DE381B0B00C11FF439EFF305EF0C0DE3AA
:1047F4001307D422EF00512EE75A0323E6071414BB
:10480400250A287FFDE2F5191A1D0403C9D8E8F327
:10481400DEFD1BE1FF1C24F5F7FCF422EF030BF48F
:10482400191D170CF91E20FFF5EB0FEDD926EA161A
:10483400EF0FF537B8E925E60E00E9EFE915F2FECA
:1048440033FCBD01E419F90F05F831D72104ED4417
:104854000A000900FD0BFFEF14BA19121903F7FB44
:10486400EA121201175F4E1414F6E8E21711E62952
:104874003C032DE7D4E532FFE3F93312E60806ECF6
:10488400E3F90DFCE71CD319F0F11E02B8F6F11C94
:1048940001FD13F7EE07E4F9E1E2DFD63713F9E699
:1048A4000A17FAF10FDDD9041BDE05E0FFF800C694
:1048B400270A1513F422160522F7D60AFDECE9039C
:1048C4005543141512CBE0FD15ED062FC8DDE5D7D1
:1048D400060D45211904F9F9171DE00FD2EC3A1A17
:1048E400E6FF1BF9E9DF45F948DFA228E9F711D40F
:1048F400F8091F34FB0B0834C75A7F3DE6AE38BCB9
:104904003325E0D818F9F737EFF6ED13FA00E70A84
:1049140035DBFFABFB4043E6ECA31DF7DED9DA2A17
:1049240012F43B4DB53328C70BE421D2A62AEDC8B7
:1049340037FDF64B34020FE40822EA44D9CF14FAC7
:10494400C7D7B4DEE824DCD90EF720E43C014415D3
:10495400D9CF2432B4022207B330133ABD39FA3422
:104964000EF0CF2CE5FAFB16F5FACD150AE902177D
:104974000BED12D7D3D90C07EC173905D4C3DBC11F
:10498400EAE4C91717EC3006B1BD25F9A50DF720E7
:10499400ECCC1767FBD810C753DD2CEFE24AE318C1
:1049A40003F0C9D12513E0C4F90A3FF40D06ECADB8
:1049B4000DC7D8FFEADCCA192EE5E52736F6EFEB7A
:1049C400D930E5C33B3A02191EFBF7FC0FD7011897
:1049D4001ACC0FF8DF22CF155BEAE42AEE16F8F6BC
:1049E400C0D7F14ADFF7112100F8C7EEC206E20B87
:1049F400E2F7170B48EE03F8075FDCBD220D36A77C
:104A04001B06E517F81721D728FD0718F5CD16F86A
:104A1400DEFD0EE0EF11E7E9C3DDC1CFF2FFF614CE
:104A240023EDF1E6F821EF1625E2BF0BEAE81800C2
:104A340025350A1C24F60CEE08073420EAE3A9EF16
:104A440013F307D8D1282AFB4EB70A0AFF072FFF12
:104A5400F1D839E0DCFC3038EE1EE403CCE616D79E
:104A64002D01FCEB3CD41DC8BD47F7D1F7DF143250
:104A7400F21044CF03EC09FBEB27F6D9F9B832CF97
:104A840003FD14F018DC00D2E008F4FBD1F62EE5A7
:104A9400DCCE3BC101D30900D5F91D24D0E2DA27CD
:104AA400F50027122D05E4C306FD0AD227FCCBF33B
:104AB400CA010AE1F22881E6F4F4CD03583420DA7D
:104AC400351C1AE9020D39F72D16092F12EDE8F7F6
:104AD40017070501F3BDF7C8E92BDC0AF24AF3FA1C
:104AE400D5DCB00DDD30F5DE09BE1F499DFAEAD3F1
:104AF40020DEE3293F24FDFFED3012BDE1ABDC4CA9
:104B0400BBEB4A12E524E5D2090705014CDD0AC2D4
:104B1400C303D906068AF8232B70BCED033168F968
:104B2400FC573FFA43FECCD5F3D9CAF2A509B348E2
:104B3400F805E1EECDDAD0DBE4540ACA54DFBF0B4A
:104B4400481A3F3504FB1E079A101A0AFFBF0D15B9
:104B540008FD1CCCCEF6F40256BD251638E910FE2D
:104B640010FED04C214F59A2FDE32496FAFADCBA88
:104B7400EE3003F23605F006F41EFEFD14C3D9032D
:104B84000EDC1CFD27CCE74FFE55EAF84E5A2726CB
:104B94001720D3E24E43E6E2C37F042577FDF2817A
:104BA400CE00FCED13E4154B3D21301D27D4E11854
:104BB400FE3BE4094CE915D71E1425370DFFB60F4B
:104BC4001F3A5843F303F84316242EC7CA00FE04C1
:104BD400FE2A1D281ECB3AE7FB2216DF02C40CC8AE
:104BE40014E84E20D4FAFBCE21DAEB2305071ED2BB
:104BF40003CEFA090CCF1FF348CD08E5D3F9E71526
:104C040014F524EEF0112B0303ED2D0D400F17E1E5
:104C140021F82C1039D10924D612DFE830220AEC0D
:104C24000B1B344726E923F52AEEFA72C7F202FE7B
:104C34000724F026F61E0AFF1D1C0BD1E4EAED083A
:104C440006EDF224F72DD80300D5F1E5DDF9E928C6
:104C5400F8E617D7F215F8242EC5B71D2D1213EF59
:104C640014F1FC28E61336F1E70A12D4E001FAEB5A
:104C7400EB042EBDB8F137F503DE503BC1E3DED6BD
:104C84001FF54F0146F3151BBC1E1404E15119F125
:104C9400EF02E8EBBD28DC23C60F193FEDF21DDF60
:104CA400CDFE0922FE1A16E30827F0DE0F18FCFCDD
:104CB400E81ED9FEED0381D3E9F21402FA190CF8C7
:104CC400D5224A2B1D9E222812E51D20C2CCF8B302
:104CD4001C2B1F0A18CC05F2F5E1F3FBCCE0E1EF45
:104CE400DB00D811DD26FFFE3A0CDCE7B2E52AEB47
:104CF400E00305182FA3F1EB1F0C29E902FC0AE2DB
:104D0400E3C225E7F2DC20C6F0EDF6FA06CB0EF29C
:104D14003CFA1EF51BF0D4E9C4CEE8070331DDE606
:104D24001AF1F8192D0DFB1236E70639DF06DCE718
:104D3400164C353153EF00F8F9611EE0F9EABE0371
:104D44002718155CEA26051F50CE113612C433F11C
:104D54002BD902CADD273A44CD1CC8FA05EF3ED24E
:104D6400F8C5EF22F8FA3EC61A220B23F9CFDA1758
:104D7400CFDD3AF317E10719DB054F12B6010C9AA0
:104D8400321553F4D2B6DA08120243FCF85728E07D
:104D9400EEB904DCF8FDBBF3D00F3AE6F998F3DC86
:104DA400BBDEDBE01A1BE8FCF53CB7C11C2F08C0D6
:104DB400B8BE18E9F80581E55B0FFFD7F231E0B71B
:104DC4000E2D7BDDE4E55AFF14E9F946C9CB22EE4A
:104DD400C8FD46FCCDD202F91303D210EA61AA023F
:104DE400D0F71703DA101DD638B2E9F1DD1B18FB32
:104DF40028F510FF16DEFFEFF0122C42ED01E87AE1
:104E04001501163709F7F3E9E012060317C9EC1088
:104E14000DD5F7C6E6091CE3DDFA2021C41C12DE19
:104E24002C1F233B530B14013CD601FAD3F5CBF4CE
:104E34000927D10B04EFF90AF5001986DCE5C00A4D
:104E44001BFBFE07FCE909D2D6D71DE7FCEDEE10EB
:104E54003FBBFCCAC8F23BD3EEBC1AC11037E2E335
:104E6400043E1C0308ED221FEFF038D90AD7E40EE4
:104E74004922FFB508E91512F2E27FFCE5DBEA09F5
:104E84001EF9201E03D6D922D2EDEA07245BD907E6
:104E9400E2CFCC0905E9F6D60D163DE3CAF0FEEBE8
:104EA400E60FD8CDECDEC7ECE32FD601000A0FC223
:104EB400F8E9C312EFE2D2CC4BC8CB2F59230C38FC
:104EC400EE221FBF0DFFDCFDDFEC1730B7EBE63839
:104ED400051622FEF0CDE6211F3EF2E4EAF1FFE1E1
:104EE400D697421D48F1FCE20503FF0AEBFB0F1FB6
:104EF400182329A8B6D3CAC7DDDCEFBED542E2E247
:104F04000001D7F11A1429C7D8FBFB0F1A51300638
:104F140015084100F4F2B945C70A00EC041B19E76F
:104F2400D4B8FF5525F0FC123511E85318D8E21C0B
:104F3400811727F53EB3283307F95406232F0A0AAD
:104F44001ABBED35E7F1BB062435C40AA7CA04B081
:104F54001F22F9F70329F621142BC2C83D0ED7F5F9
:104F64001ED83029FD0CF4F3391CF81B2D07EDCFA6
:104F740007F93A2A0319F0E5E8FEE6E4E20509DE5A
:104F84000331062DF812F30E175210F3F63808FC0D
:104F9400EF3DCCB54200E6149953C8D4F0CE06EBED
:104FA400DAF8EB3C023703E5FDF3C3DB013246D606
:104FB400D26D13F3CDD7DAA3AB0D25DDF737ECCEE5
:104FC40027E9F3F6F0FACAD3250D25E5DD100ECF57
:104FD400D51B2B08D03FE1C91C3BF616A9EDE00711
:104FE4003A272F091F73FADDFD2805C77FF4D6FF82
:104FF400D4081D26C545D3131B1C14D1FFE117D0BB
:105004000902F3E021127CFB02F919420F11EFF9B6
:10501400FB2840F35E1BEC4CFFD1EEE833ECD202EC
:10502400EAF2CFE8FE2114E2F32AE7FBF40C490785
:105034000F0626031424EFDF06F10E58090F012191
:10504400AB161ED522F40B390F08522A152EF1E7A0
:10505400F908E42AFE14CBE40BFFDB18EFCDEF26AE
:10506400DDD510FFDCC2021D15D5E02E2E10F70190
:1050740097FDF6FDE912DFDCE8E7DE121CE12DEC1A
:10508400FC3A052D1DE54BDF0901F305F5DEFBF9BF
:10509400D3F81B24F7E121F5F1F5F117E41D14F918
:1050A400071EFD3EFF082C0C02EC181F0ACAFB0E5B
:1050B400042FFFEC2F1AFE3BF4031D1D8ADEF4EBD4
:1050C400FE1AF3EEFA321EC628F813D023140FFB8F
:1050D40011EFE00820EDE9F406EB2014EA21C219EF
:1050E400024000E4182120EA3368F4E27F1C0EF544
:1050F4002031F4E6E9394E16ED041D6ACEFD35C4BF
:105104003A23242315C7F261EF03EC35E907D8F2FB
:10511400330908C02E4113031BFDFA4926131BFB58
:10512400C6ED2BE9D4EC14FDFB412C21D2253A1217
:10513400002317330A1936033DD6CD2AE6182DCDA0
:10514400F505DFEB141AE722FC2928102404042AAD
:10515400FCFAF12BFCE9CCE1E6FED951FB2EE73455
:10516400D4C5F1FE1127EE53FECCF22A1D0F0725FC
:10517400D9ED532B12ED070ADE143B2FFD1BE0186B
:10518400EF16FF0EEF0AFCDEFDDF50249B17E7430A
:1051940029DC2024F6E823F44B03FC0E1837121202
:1051A400EDFEEEF726E5BA46EDF7F208F2FA2BC06B
:1051B4005DD9F11B16EE330A0BDFDA01B5BD05F23A
:1051C4000C3EFEE000FBFACFEAD006B9CDE5E5FFE0
:1051D4000E2906FEF8EDE95B17D20205E6031C2D45
:1051E400CCFF0F05383DB9D2F013F5BBFFD0F50461
:1051F400243904A7E4D6EBB0FED72935E011DC301E
:10520400FE0FA4A238BC37FD524EEF9ABFD6E90177
:105214007C27090BE13A2813E5DBD7EB2646264F1A
:105224002E25B4DB14FA06CB2A07E8F8201A04F377
:10523400F1ECA9BB04FEF2DDE1DF4AAEDE1F0EC3D2
:10524400E5F009D5D4FBF5D91DE3B10C35FF03B561
:105254000DEE0F47F7ED2ABD0FFAF50C33579BFE01
:105264001B2C00E507D79920CF0BC229DECC1103F4
:10527400EDCDBAE1FFF8DADAE2001507F3F1122F07
:105284005DEABCFD094C021D30D5E3FE06B706F20B
:10529400B52137E00BD722FCDAF20281CD340D4E72
:1052A400F528CE4E02EA0521CC37FD202E00D8DBAE
:1052B400F6CA100732FCD2E0422FD135AF3BE72FBC
:1052C400CF18990490F5BFA2E030E6D1DD3ADFDED5
:1052D400E0C1E9FE28FEBDEE1E31FEE130B7E5CAAD
:1052E400F4FDB41AEEBBEE213DFBDC07CFF7F9ED7C
:1052F400F8D519133513EE02FC2D10F9F8FD3ED63E
:10530400BA000F07E5FBFDD90CF3F832CFEFF9EE45
:10531400FFDD4211E2270BD60BFBD0F0D6EDDCE229
:1053240018201A0AD122EC12F5F50222F2D713E45E
:105334003B502020EFE6FCEE004A2620D808BFE7C9
:1053440042F62316021E080F1FAB360E12220AE085
:10535400F3D5282B170003170AF013EFF4C6F0E077
:105364001A09E0F5142422D70E0C541A13F9017FFC
:10537400130304C8E1F3CCE2F9EB0A0BF8E446B9F1
:105384000CFA0ACCD8D4DAC322FFECEBDDF20B1D05
:10539400190816D7DF0DE319EAE1012CD1E10B015D
:1053A4000AE726EB2DE4FEE00A0A221DE6DB1F0BCA
:1053B400EF300105E520174C1A23E626313216FAA0
:1053C400F4231E0752DB15F52DFEEB1C26F3E6E64F
:1053D400EF20EA19FCF0F3E70C27011D17660FD440
:1053E400DBF8A7F9F5FE04FF2EADEC01A5FB29F8C7
:1053F400F816282623F0F201071B1F38D71BD20109
:10540400000A3AEE1EE8E8FFF00BE8D539C001FACD
:105414003DF4E0C40CF33CCFEFDDE251E718301E5D
:105424002F07F30C06D1F6E530F30D0DFF26B0CDB2
:10543400240C010C39D10EFC06370DD0ABF8A314A3
:10544400041118E8FCC21F0DEDE7BD0122E315D5D8
:10545400E4E82AD7D7D60CFFF1040CEAE9F310DE0E
:1054640005E10E0CECFA4CBCFB06030404C2F52E59
:105474000BFE03AD490727FFD8041EEB01F5EAE450
:105484000506C510E9FE3328E3EE1111FB7FE6E0C3
:105494001CE103CDFDEAC9C7002F3735F7E50AD96A
:1054A400EDF8A92CF5FE0D3ADD2ED614F707E1BD73
:1054B400FCECBBEED8DFD1F73606D5F71C3EFB2655
:1054C40018343EE2FCEC2529C90E021C220AF5F927
:1054D400FDF4FAC6C0DDA10839F4F3DFF61E1FE8B7
:1054E400F3CC300BEE1B06F930EFEF292351FFE329
:1054F400371802F221FF3462EA162E62D8C260F530
:105504001BF2C61C1D81D50D30391625CFD8130BBF
:105514003503EFC1EF344EE105CE0F2A090DBE0C61
:1055240046C9EA28C82A2AD81CFD59DAE055F0EB06
:10553400330CCAFD12CFF91235DDF657E0EB2D021C
:10554400E506B5DEE81CE1E924C81ADC6521353935
:10555400FBE2F650F3071DD4ED2FEE40F020FB42A2
:10556400FCF4D13349E8075B0024DB0511FBF6FFAB
:105574002FF214EA0FD513EEE3074DFA13BBFD0225
:10558400EDDAC4E0B429FCDFFAF2371B8BE1E22048
:1055940025CC4231EEED08D3321012F8C633082779
:1055A40015F097E63BE9D5090C1CE71EDB1818B883
:1055B40009B6FAF3FFCC220236F5E3280F1DF30FE8
:1055C400D624FDDF13242FF71CDBD22437FDEA1485
:1055D4002D1CF2F3C7F3D21145FB0137FC26D5434A
:1055E4008FC0EB53D3EFFEF81111F3613B35CE17A7
:1055F4000831932D23FD44FE44FC924407AFD1E2CD
:10560400F7FCDD6C86EF0C52F1FA3F3EBDE6000775
:10561400FE0AD757B855059EFF19CE0FE9CAF0CF39
:105624005933E02A1025C8FAD4F61237FE1E711732
:10563400FB1C013CC32A03AEFE34A92D06F8C56D3C
:105644000B15CAE61B0CE7E538DF1FDEDCD71B743D
:10565400F01E0BF024D8FD3C18CA21F59FED212E35
:10566400B001DA3F6F4344DDEA5034F20117CE4310
:1056740015E4FFE9D1BB17512117E921C5FCCCE39F
:10568400E9426F1BECFBEC15BC0553EF0FC4081685
:105694003384F802004102F4F5282F3F47C7033F43
:1056A40010FB41B1093BF2F462E733D381C2F3E862
:1056B4000D4BDBEDC346C0D9E7F3BAC90CF4ECEAF1
:1056C400020F32BC09450CDB3B005B44B4CEF0CE88
:1056D4005E27302A0EBB242EDC3E3AFAF9FC123245
:1056E400D9EA0C24120FE2E1D52F4353E0E620005F
:1056F400EFEA15F5F4F9DF04F807109EFA2EF832F4
:10570400D6F9F344E24BDDDABFE7FAEB24E81F0AEB
:10571400A5F30E35AAA8EBFF01473805DEF82C08DF
:10572400CA2227F10EF3E90300E6D6EE33A219FDEF
:10573400EBFE1EDC1CE10E09150F14F82FDD3433CB
:10574400ECF20329F7040101E0F7EB0CD7DBFF814E
:10575400F63625D116F4DE4720175DEE2ADA071255
:1057640065EC2601D91ED2CEDEE42120F23515C126
:10577400F70AEA1240E6E4D90044E6F31B3409FAD6
:10578400FBF7EFE7081DE7192828E8ED53F20EC6EA
:1057940034E8B1101049C725D82DD9E82A22D6C03B
:1057A40010D60EF1B041F91DF223F91D4921F6245A
:1057B400C9091C0A05E4070FBD2525DD07270EFED0
:1057C400DD0033270D3904470B3C3DE7F70B2CF381
:1057D400CB3FF411FC271E13DD2EFECCE8ACF6F50E
:1057E4002DEDF9C003035653F0D0B9E5152B1DF97F
:1057F40007E9330C231A1831C14872270D1042AE41
:105804001F05C8074BB4D41D3524DDEDF2CFF42EAB
:105814001E05B581FA2A280DA38D072EF7000EE97F
:10582400F7B3421EEDE215F610FE12E9124616D841
:105834000198C03CF1C0EDFB1CEAC91ADAC9F8C1F1
:10584400EBEDD8E4F7C3E9180DCDE21CFF02092102
:10585400FBDB3321D30868D7C6F9D92DD13ED7ED68
:10586400000C1F1526DD165BF2FCDAE919E2E6F8F6
:105874001FDCF6E90BD11CF3DC1E4A13DBAAC9E4D6
:10588400EB0AC01B180A0F03DDFB1E1E9325EFFE57
:105894001CB3565037C6D4BA57E63E9BCDF7030324
:1058A4001721D8F92D23233015E224E505E308C791
:1058B400D6C8CCEF0BDB211F43B8EA5347070ED7FA
:1058C400DC67EDBF1818EB0135ECC1F5F9FCFD35CB
:1058D400D8F51DE0FAF7B2003CF9E12F14E911E81C
:1058E400B3D4F03034FD06A70F0D1B099822F22122
:1058F400B1EF2AE58109F92B031EBA9E1F3849D658
:1059040019FAEFF8FF45E7BCE8AF411E00372B0159
:10591400FA14231B1304E34F12D215B57419DA07D2
:10592400F705DE3DF41F03201316061C3C0723E392
:105934000839002039E71744000E4A22274F11DEA8
:1059440011CB2929BD32C0F0ED11E516FFE619048B
:10595400033501ECF13715FE1020FFDF4207F0DCC0
:10596400FDE700C6111B09F8125B06DE213B52322B
:10597400EF4B211EAEEEE51829E4C90922E64D06D7
:10598400012D44BCEFD0DA020316F81016E73214E6
:10599400EA6AE1D7EC20230210E5E8DC06D42826E5
:1059A400FD180E2100F5FAC7E11DE5B9003121FB10
:1059B400CB4D2DF7E331E824EA2015ECECFD40A1B2
:1059C40015E6F91E2AD832FC1AF5FA1C031461DF15
:1059D40005F3EA43F31819AB0CC42636DC02F5F1DF
:1059E4003AF6E40A4B31FF2AC1131FEF1C1409FFD6
:1059F4001FDB0D19F0D5E5D0E38DE79B0B2120E3E8
:105A0400D320D5E5E148F0D6E3E4E4E120430F03F5
:105A1400B9170F198819BCC70F295FCBBAD9051953
:105A240033270CC4B659D725E7C0E7E756C21E246E
:105A3400DECA46F9103A26101DE800F929FB2E1D8E
:105A4400E1DB49DEFEF6BDE4C0D0D912CF81C70E3A
:105A5400DF4E02340445E2320C0E5F3F4FB40C11AA
:105A640033EF18FBE3ED0634DBCF001C744D35A196
:105A7400F64EC5ED081BE7FE5C11E1182CE83C313D
:105A8400020C2608DA4FA5E2D4F2C2F42CBF0A03B2
:105A94005CD4ADD9D058FA7004E5BD091648C3E109
:105AA40016E356EABA70F7AA30E2F24A111AF47A07
:105AB400E1FE041CF2B5371CE223310C1AF03C1D44
:105AC4000A90453B2205DB0B42F9011013494C3384
:105AD400F21BC9344A1F19FDB00240FCFE1007C571
